:10000000ECC0000008C1000006C1000004C10000EF
:1000100002C1000000C10000FEC00000FCC00000E2
:10002000FAC00000F8C00000F6C00000F4C00000F4
:10003000F2C00000F0C0000088C10000ECC0000069
:10004000EAC00000E8C000000C94E60FE4C0000025
:10005000E2C00000E0C00000DEC00000DCC0000024
:100060000C944812D8C000000C94ED000C940B01C5
:100070000C940B010C940B010C940B010C940B01D0
:100080000C940B010C940B010C940B010C940B01C0
:100090000C940B010C940B010C940B010C940B01B0
:1000A0000C94A5010C940B010C940B010C940B0106
:1000B0000C94E60F0C940B010C940B010C940B01A7
:1000C0000C940B010C940B010C9448120C940B0132
:1000D0000000000000000000434F4E534F4C45000D
:1000E00000007F077F077F077F077F077D077F0768
:1000F0007F077D0700007D07000100000001000070
:10010000004E554C4C4445560000007F077F077F4A
:10011000077F077F077D077F077F077D0700007D3B
:10012000070002000000000000004E414D45535002
:1001300041434500180CC10D7D077D077D077D07F4
:100140007D077D077D0700007D07006E616D696E8C
:100150006974202864657669636573293A0D0A001D
:100160004552524F522047455453544B2025730A51
:10017000006E616D6573706163653A2064657669D0
:100180006365206E616D6520257320746F6F206C30
:100190006F6E670D0A006E616D6573706163653A1D
:1001A0002063616E6E6F74206D6F756E74202564B0
:1001B0000D0A000A0A416C6C20757365722070721A
:1001C0006F636573736573206861766520636F6D17
:1001D000706C657465642E0A0A0011241FBECFEF8F
:1001E000D8E0DEBFCDBF11E0A0E0B1E0E0EEF1E38A
:1001F00002C005900D92AC39B107D9F724E0ACE903
:10020000B1E001C01D92AC39B207E1F70C94D405FE
:100210000E94130FDAC2F4CEFF93EF93FC01008229
:100220000FB6F89404A2118222823382448255824E
:100230006682778280869186A286B386C486D586BA
:10024000E686F786008B118B228B338B448B558B84
:10025000668B778B808F918FA28FB38FC48FD58F52
:100260000F90068E0F90078E0DB600A20EB601A25B
:10027000FB0100A00DBE01A00EBE078C0F92068CE4
:100280000F92D58DC48DB38DA28D918D808D778980
:100290006689558944893389228911890089F784BF
:1002A000E684D584C484B384A284918480847780D6
:1002B00066805580448033802280118004A00FBE68
:1002C0000080EF91FF910895A4E0B0E0EAE6F1E04C
:1002D0000C94D51319821A821B821C8219821A82ED
:1002E0001B821C8209811A812B813C81061717070A
:1002F0002807390770F4000009811A812B813C819D
:100300000F5F1F4F2F4F3F4F09831A832B833C836F
:10031000E9CF2496E4E00C94F11380E284B92D9A9D
:1003200060E47DE083E090E0CFDF2D9860E47DE045
:1003300083E090E0C9CF1092170210921802109239
:10034000190210921A0281E008951F920F920FB6BF
:100350000F9211242F933F934F935F936F937F934B
:100360008F939F93AF93BF93EF93FF93809121025D
:1003700090912202A0912302B09124020196A11D26
:10038000B11D8093210290932202A0932302B09387
:100390002402883E9340A105B105D8F08091250242
:1003A00090912602A0912702B09128020196A11DEA
:1003B000B11D8093250290932602A0932702B0934B
:1003C000280210922102109222021092230210920F
:1003D000240280911B0290911C0226E0289FF001CC
:1003E000299FF00D1124ED53FC4F828193818430BD
:1003F000910584F4289FF001299FF00D1124ED53FD
:10040000FC4F80819181019791838083892B11F426
:100410000E942B0B80911D0290911E02A0911F0241
:10042000B09120020197A109B10949F080931D0202
:1004300090931E02A0931F02B09320020DC081E092
:1004400090E0A0E0B0E080931D0290931E02A09384
:100450001F02B09320021AD7FF91EF91BF91AF9185
:100460009F918F917F916F915F914F913F912F91CC
:100470000F900FBE0F901F9018954AD690931C02B4
:1004800080931B0281E090E0A0E0B0E080931D0229
:1004900090931E02A0931F02B09320021092250297
:1004A0001092260210922702109228021092210226
:1004B00010922202109223021092240285B58360CA
:1004C00085BD84B5826084BD89EF87BDEEE6F0E02E
:1004D0008081826080830895CF92DF92EF92FF92B5
:1004E000CF93DF936B017C0100D5D82F83E0C81632
:1004F000D104E104F10420F08D2FFAD4CFEF11C024
:1005000029E22C9DC0012D9D900D112480539F4FF9
:10051000FC0176960590F491E02D0995C82F8D2F5A
:10052000E7D48C2FDF91CF91FF90EF90DF90CF90A9
:100530000895A6E0B0E0EFE9F2E00C94C7132B8D2C
:1005400029838C8CED8CFE8C09A13AA13E83CDD4FD
:10055000982E40E4E416F1041CF470E4E72EF12C2C
:1005600083E0E80EF11C9CEFE92227010F2C000C20
:1005700066087708C301B20169D21C01019679F4BB
:1005800080E691E00E94640B892DB2D4FFEFFA83DC
:100590002FEF2B833FEF3C834FEF4D8309C1309109
:1005A0009C0120919D0180919E0190919F01A12C21
:1005B000B12C1BE5632F722F24E030E040E050E0C7
:1005C0000E94AB136B017C016A83DB82EC82FD82AB
:1005D000169FF001179FF00D1124E35DFD4F808100
:1005E0009181B701A6014F5F5F4F6F4F7F4F892BFE
:1005F00079F440939C0150939D0160939E01709308
:100600009F018FEFC816D806E806F806A1F4B8CF08
:10061000342F252FCB01EFEFAE1ABE0AF4E0AF1650
:10062000B10441F640939C0150939D0160939E015B
:1006300090939F01A5CF2F8D38A1121613060CF0B1
:100640009FCF8091990390919A03A0919B03B091C1
:100650009C030196A11DB11D8093990390939A0369
:10066000A0939B03B0939C0385E090E091838083EB
:100670003383228331AE20AE42AE53AE64AE75AE4C
:10068000DF01AB5BBF4F1C92A02FBE818F0180E0CA
:1006900090E02D91F801E80FF91F26AF222321F0F9
:1006A000019687309105A9F72BE52C9DC0012D9D62
:1006B000900D1124FC01E35DFD4F5F01EA5BFF4FEC
:1006C0008FEF9FEF91838083B8D1F501E85BFF4FF7
:1006D000608371838283938338961082319611826E
:1006E00010823296118210823296118210828AEA2A
:1006F000F10180838BA19CA1F50193A782A720E043
:1007000030E0F801E20FF31F14822F5F3F4F2632D3
:100710003105B9F72BE52C9DF0012D9DF00D11242D
:10072000E35DFD4F298124AB85AA26A387A220E89B
:1007300020A7DE01959620E030E02817390764F401
:100740004D915D91F901EE0FFF1FE00FF11F55A7CD
:1007500044A72F5F3F4FF1CFFC017696EE0FFF1FAE
:100760004BE54C9D90014D9D300D1124E20FF31F80
:10077000E35DFD4F11821082F901E35DFD4F848F2F
:10078000958F275A3D4F228F338F89E29BE0D1010D
:1007900011978C9311979C93119739813C931197E2
:1007A0008C9245E0241A310824A235A2892DA0D3C9
:1007B0006A817B818C819D812696E2E10C94E31312
:1007C00061E070E080E090E0089537D19AC3A0E046
:1007D000B0E0EDEEF3E00C94CD13EC016A017B0187
:1007E00084D3C114D104E104F10409F447C0209179
:1007F000BF033091C003C217D30708F43FC0209154
:10080000C1033091C2032C173D07C0F197E0C90E18
:10081000D11CE11CF11C98EFC922A601DD0C660B6E
:10082000770BE091B903F091BA03A9EBB3E03097ED
:1008300041F0EC17FD0740F5DF010190F081E02D5C
:10084000F6CF93E0A93BB907D1F11296CD90DD9098
:10085000ED90FC9015978D010B2E000C220B330BA5
:100860000C0D1D1D2E1D3F1D6E010D2E000CEE08E2
:10087000FF08C016D106E206F30618F439D38FEF4D
:1008800082C0309741F41EC093E0A93BB907E9F656
:1008900000E010E098016E010D2E000CEE08FF083C
:1008A000C40ED51EE61EF71E4F010F2E000CAA081F
:1008B000BB088C149D04AE04BF0420F4DFCF00E01D
:1008C00010E09801C090BB03D090BC03E090BD0342
:1008D000F090BE03C40ED51EE61EF71EC092BB03E9
:1008E000D092BC03E092BD03F092BE036E010D2EC8
:1008F000000CEE08FF08C016D106E206F30691F4DC
:1009000012960D911D912D913C911597400F511FFD
:10091000621F731F12964D935D936D937C93159791
:10092000ED0108C0F983E8834A835B836C837D8390
:10093000CD93DC934A815B816C817D818E010D2E8C
:10094000000C220B330B040F151F261F371F6F01DE
:100950000F2E000CEE08FF080C151D052E053F0597
:1009600081F40281138124813581400F511F621F60
:10097000731F4A835B836C837D832081318139833C
:100980002883B6D281E0CDB7DEB7ECE00C94E91352
:1009900026E0AC01249FC001259F900D1124FC018D
:1009A000ED53FC4F42815381443051051CF5BA018F
:1009B000052E000C880B990B249FF001259FF00D4C
:1009C0001124ED53FC4FA281B38144815581249FB2
:1009D000F001259FF00D1124ED53FC4FB383A2834A
:1009E0002A9FF0012B9FF00D1124ED53FC4F5583EE
:1009F000448308956FEF7FEFCB01089546E0469F53
:100A0000F001479FF00D1124ED53FC4FA281B381FB
:100A100024813581429FF001439FF00D1124ED5355
:100A2000FC4FB383A2834A9FF0014B9FF00D11242A
:100A3000ED53FC4F35832483089560912902709112
:100A40002A0280912B0290912C020895A0E0B0E040
:100A5000ECE2F5E00C94D1136B017C0146D2C11499
:100A6000D104E104F10449F197E0C90ED11CE11C65
:100A7000F11C98EFC9220D2C000CEE08FF08E09144
:100A8000B903F091BA03A0E0B0E0C0E0D0E029EBF8
:100A900033E0309781F042815381648175814C1538
:100AA0005D056E057F0510F0D901EF019F010190F2
:100AB000F081E02DEECF209721F41AD28FEF9FEF37
:100AC00041C00A811B812C813D81C016D106E206FE
:100AD000F30629F4288139812D933C9311C00C1918
:100AE0001D092E093F090A831B832C833D83AE0118
:100AF000DD0F660B770B040F151F261F371FE8014C
:100B00004091BB035091BC036091BD037091BE0343
:100B10004C195D096E097F094093BB035093BC03D8
:100B20006093BD037093BE03E3D1D701C601049760
:100B3000A109B109AE01DD0F660B770B840F951F7C
:100B4000A61FB71FCDB7DEB7E8E00C94ED13CF9228
:100B5000DF92EF92FF92CF93DF936B017C01C5D1BF
:100B6000D82F83E0C816D104E104F10420F08D2FC2
:100B7000BFD1CFEF11C029E22C9DC0012D9D900D5A
:100B8000112480539F4FFC0172960590F491E02D43
:100B90000995C82F8D2FACD18C2FDF91CF91FF906D
:100BA000EF90DF90CF9008951ED37AD210929903E0
:100BB00010929A0310929B0310929C0310922504AA
:100BC000109226041092270410922804EDE2F2E01D
:100BD0001182108216AE11AE10AE13821282E55A47
:100BE000FF4F83E0E939F80799F7CDE9D3E009EB46
:100BF00013E0188219821A821B821C8289D29E837A
:100C00008D8327960C171D07A1F795DB81D2909352
:100C100024048093230460E070E0CB0198DF61E05E
:100C200070E080E090E093DF62E070E080E090E0D0
:100C30008EDF23DCE091B903F091BA03309721F005
:100C40000190F081E02DFACF1F921F921F921F9208
:100C500086E191E09F938F931F928AE08F931F927A
:100C600080E48F931F921F9264DC2BE5269FF00196
:100C7000279FF00D1124E35DFD4F81E090E091830B
:100C8000808338D11F921F921F921F928CE191E0B6
:100C90009F938F931F9284E18F9381E08F931F9294
:100CA00083E19FE09F938F9344DCC1D38DB79EB7C0
:100CB00048960FB6F8949EBF0FBE8DBFFFCF1F930F
:100CC000CF93DF93FA0134973B9708F054C0643018
:100CD00071058105910508F04EC03BE5369FF00196
:100CE000379FF00D1124E35DFD4F0190F081E02D61
:100CF000EF2B09F440C036E0349FF001359FF00D32
:100D00001124ED53FC4F42815381022E000C330B12
:100D1000C6E016E0C49FF001C59FF00D1124ED530D
:100D2000FC4FA081B181A217B30718F04281538113
:100D3000F0CFC481D581169FD001179FB00D11242B
:100D4000AD53BC4F13965C934E9312971596DC935C
:100D5000CE9314972D933C931C9FD0011D9FB00DF3
:100D60001124AD53BC4F13967C936E9312977583E9
:100D7000648381E001C08FEFDF91CF911F910895CF
:100D80004F925F926F927F928F929F92AF92BF929B
:100D9000CF92DF92EF92FF92CF93DF9300D000D0FB
:100DA000CDB7DEB76B017C01CA0104970B9708F041
:100DB00088C084E0C816D104E104F10408F081C0C1
:100DC0008BE58C9DF0018D9DF00D1124E35DFD4FB1
:100DD00080819181892B09F474C04A01052E000C91
:100DE000AA08BB0886E0849FF001859FF00D1124BE
:100DF000ED53FC4F82819381092E000CAA0BBB0B93
:100E00004F5F5F4F2A01550F6608770849825A8263
:100E10006B827C8266E049805A806B807C8084157E
:100E20009505A605B70569F566E06C9DF0016D9D19
:100E3000F00D1124ED53FC4F53824282958284823F
:100E400031832083689DA001699D500D1124FA0112
:100E5000ED53FC4FD382C282649DF001659DF00D7D
:100E60001124ED53FC4FD582C48284159505A60547
:100E7000B70529F180819181821B930B9183808337
:100E80001EC0689FF001699FF00D1124ED53FC4FC7
:100E9000408151812417350758F0241B350B4281BE
:100EA00053814C015D01CA01550FAA0BBB0BB3CF97
:100EB0002C013D0189819A81AB81BC81B5CF81E054
:100EC00001C08FEF0F900F900F900F90DF91CF9197
:100ED000FF90EF90DF90CF90BF90AF909F908F905A
:100EE0007F906F905F904F9008958FB7F89408951A
:100EF0008FBF089578940895FFCF8FEF089581E014
:100F00000895AF92BF92CF92DF92EF92FF921F931C
:100F1000CF93DF936B017C01E8DF182F84E0C816C4
:100F2000D104E104F10488F48BE58C9DF0018D9DE2
:100F3000F00D1124E35DFD4F80819181892B29F013
:100F4000C114D104E104F10421F4812FD1DF8FEF2A
:100F50009DC08091990390919A03A0919B03B091B9
:100F60009C030197A109B1098093990390939A0377
:100F7000A0939B03B0939C030297A105B1050CF4C9
:100F800096D38BE58C9D50018D9DB00C1124F501FD
:100F9000EB58FD4F6081718182819381A701960199
:100FA0007BD2C0E0D0E0FE01EA0DFB1DE258FD4F10
:100FB00060817181072E000C880B990B8DDA2296C7
:100FC000C630D10581F78BE58C9DE0018D9DD00D5C
:100FD0001124C35DDD4F4AAD5BAD6CAD7DAD495FA6
:100FE0005F4F6F4F7F4F487F052E000C660B770BCE
:100FF00088AD99AD092E000CAA0BBB0B0496A11D60
:10100000B11D841B950BA60BB70BE1DB8881998181
:101010008430910581F030F48130910549F00297D8
:1010200029F127C08630910551F0079721F021C0A2
:10103000198218822BD1C701B601BDD21AC0CA5B72
:10104000DF4F8881998127E0289FF001299FF00DCB
:101050001124E356FC4F81819281A381B4810196D2
:10106000A11DB11D81839283A383B483C701B601FF
:10107000C5DC8BE58C9DF0018D9DF00D1124E35DA9
:10108000FD4F11821082812F33DF81E0DF91CF91FC
:101090001F91FF90EF90DF90CF90BF90AF90089599
:1010A0000F931F93CF93DF938CE994E0A0E8BB27C5
:1010B0000196A11DB11DEC019093C0038093BF0365
:1010C000AC0148515C4F5093C2034093C103E9EB1C
:1010D000F3E09183808319821882052E000C660B41
:1010E000770B092E000CAA0BBB0B8A019B01081B76
:1010F000190B2A0B3B0B0A831B832C833D83028332
:10110000138324833583DF91CF911F910F9108952D
:1011100020910001309101012031310544F5C901D0
:1011200002969093010180930001A9014F5F5F4FE8
:1011300066E0629FF001639FF00D1124ED53FC4FB8
:10114000538342838FEF9FEF9583848391838083C2
:10115000649FF001659FF00D1124ED53FC4F9383C4
:1011600082833583248311821082C90108958FEF11
:101170009FEF08958F929F92AF92BF92EF92FF924E
:101180000F931F93CF93DF934B015C018A01790189
:10119000ACDED82F83E088169104A104B10420F0BE
:1011A0008D2FA6DECFEF13C029E2289DC001299D17
:1011B000900D112480539F4FFC0174960590F4917B
:1011C000E02DA701B8010995C82F8D2F91DE8C2F36
:1011D000DF91CF911F910F91FF90EF90BF90AF9053
:1011E0009F908F900895F89498D897D8E9CACF9394
:1011F0009C01245031092B303105F8F4C6E0C89F1A
:10120000F001C99FF00D1124ED53FC4F2281338171
:101210002430310594F4BCDBC69FF001C79FF00D6C
:101220001124ED53FC4F2FEF3FEF3583248333839D
:101230002283462F372F282F04C04FEF3FEF2FEF89
:101240009FEF642F732F822FCF9108956430710523
:1012500081059105C8F42BE5269FF001279FF00D2D
:101260001124E35DFD4F20813181232B69F022E0C1
:1012700030E0318320834091230450912404228163
:101280001EDD04D081E008958FEF0895CF92DF92A4
:10129000EF92FF928091250490912604A09127045B
:1012A000B0912804181619061A061B0624F481E0CA
:1012B000809329046BC0C0902902D0902A02E0904C
:1012C0002B02F0902C028BE58C9DF0018D9DF00D92
:1012D0001124E35DFD4F80819181019729F52281E1
:1012E0003381409123045091240486E0849FD001EF
:1012F000859FB00D1124AD53BC4F12966D917C911A
:101300001397869FD001879FB00D1124AD53BC4F1A
:101310008D919C9182179307C8F182E090E09183B0
:101320008083C701B601CBDC809123049091240413
:101330005EDF6093290270932A0280932B029093C0
:101340002C022BE5269FD001279FB00D1124FD0113
:10135000E35DFD4F41E050E05183408341E050E0C8
:1013600060E070E040931D0250931E0260931F02E4
:1013700070932002BD016F5C7D4F2C9DC0012D9D9F
:10138000900D11248F5C9D4F0E940C01FF90EF90F7
:10139000DF90CF900895613071058105910531F09E
:1013A0006230710581059105F1F03FC080912504FF
:1013B00090912604A0912704B0912804AC01BD01AE
:1013C0004F5F5F4F6F4F7F4F40932504509326042C
:1013D0006093270470932804892B8A2B8B2B19F593
:1013E0001092290420C08091250490912604A09198
:1013F0002704B0912804181619061A061B06ACF427
:101400000197A109B1098093250490932604A09324
:101410002704B0932804892B8A2B8B2B21F48091ED
:101420002904811133DF81E008958FEF0895CF9271
:10143000DF92EF92FF921F93CF93DF936B017C01BA
:1014400054DD182F84E0C816D104E104F10470F4CF
:101450008BE58C9DF0018D9DF00D1124E35DFD4F1A
:1014600080819181009711F0059729F0812F40DD4F
:101470008FEF9FEF09C0D281C381C701B601E6DEBD
:10148000812F36DD8D2F9C2FDF91CF911F91FF9003
:10149000EF90DF90CF9008958F929F92AF92BF927E
:1014A000CF92DF92EF92FF92CF934B015C016901E3
:1014B0007A011BDDC82F84E088169104A104B104D1
:1014C00090F48BE5889DF001899DF00D1124E35D7A
:1014D000FD4F80819181009731F0DF01A05BBF4F0C
:1014E0002C91222321F08C2F03DD8FEF16C0E45BBB
:1014F000FF4FC082D182E282F38221E02C938330BD
:10150000910529F0079731F4C501B40154D0C50104
:10151000B4019CDE8C2FECDC81E0CF91FF90EF904A
:10152000DF90CF90BF90AF909F908F900895CF9213
:10153000DF92EF92FF92CF93DF9397FD33C06B0161
:101540007C01672B682B692B11F4B5D029C0CDDC49
:10155000D82F40911B0250911C026091290270917A
:101560002A0280912B0290912C02960109DCC82F4F
:101570008F3F19F48D2FBCDC16C080912902909109
:101580002A022BE5289FF001299FF00D1124E35D2D
:10159000FD4F84E090E09183808378DE8D2FA8DC7E
:1015A000C1E001C0CFEF8C2FDF91CF91FF90EF9082
:1015B000DF90CF900895CF92DF92EF92FF92CF937A
:1015C0006B017C0192DCC82F84E0C816D104E104D1
:1015D000F10488F48BE58C9DF0018D9DF00D1124B4
:1015E000E35DFD4F80819181009729F08430910562
:1015F00031F0079721F08C2F7BDC8FEF24C026E0A1
:101600002C9DD0012D9DB00D1124AD53BC4F1296D1
:101610008D919C911397843091057CF4289FF00163
:10162000299FF00D1124ED53FC4F208131818D91C4
:101630009C91820F931F91838083C701B601DED9ED
:101640008C2F56DC81E0CF91FF90EF90DF90CF9010
:101650000895F3D956CCCF9361E070E080E090E03C
:101660009ADEC6E080911B0290911C02C89FF00197
:10167000C99FF00D1124ED53FC4F2281338124309A
:10168000310574F4C29FF001C39FF00D1124ED5396
:10169000FC4F20813181232B19F4A9DDD7DDE2CF66
:1016A00062E070E080E090E076DECF91089583EB19
:1016B00091E00AD021CCCF9318DCC82FE7DD8C2F26
:1016C00017DC81E0CF91089508950F931F9300E0F8
:1016D00010E09801041715072607370764F4DC01AA
:1016E000ED91CD010F5F1F4F2F4F3F4FE111F2CF13
:1016F000B801C90104C06FEF7FEF8FEF9FEF1F911B
:101700000F910895A6E0B0E0E8E8FBE00C94C71361
:10171000182F9C831B0169017A01E7DB082F40E148
:1017200050E060E070E0812F9C81CFDF4B015C01D5
:1017300041E050E060E070E0C101C7DF2B013C01F7
:101740002FEF82169206A206B20649F16F3F7F4F35
:101750008F4F9F4F21F153E0C516D104E104F104EE
:10176000F0F480912A0490912B04A0912C04B09164
:101770002D0484309105A105B1058CF419831C81D9
:101780001A8325E1289FA001299F500D11245E8313
:101790004D8320E030E040E050E0BA0104C0802FEB
:1017A000A7DB8FEF42C0481559056A057B059CF4FD
:1017B000E981FA811191FA83E983ED81FE81E20FDB
:1017C000F31FE25DFB4F10834F5F5F4F6F4F7F4F03
:1017D0002F5F3F4FE8CF14141504160417045CF470
:1017E000F101208135E1389FF001399FF00D11247E
:1017F000E25DFB4F208B25E1289FF001299FF00D32
:101800001124E25DFB4FC18AD28AE38AF48A0196F1
:10181000A11DB11D80932A0490932B04A0932C0446
:10182000B0932D04802F64DB81E02696E2E1CBC7E4
:10183000A0E2B0E0EDE1FCE0AEC786E0E1E2F1E07D
:10184000DE015B9601900D928A95E1F710922A04D1
:1018500010922B0410922C0410922D048BE491E032
:1018600033DF80EDA82E80E0B82E88E090E09C0168
:10187000205D30404901DE015B968E010F5F1F4FF6
:10188000C12CD12C760138018D91F80181938823E8
:1018900039F03FEFC31AD30AE30AF30A8F01F4CFFA
:1018A000B4016A0D7B1D60537F4F4AE050E0CE01CA
:1018B00041960E943716FE017196BFEFCB1ADB0AE4
:1018C000EB0AFB0A20E1C216D104E104F10464F43E
:1018D00081919FEB980F9A3108F4805ED8018D9327
:1018E0008D018111EACF09C030E1C316D104E104B2
:1018F000F10419F081E791E00DC0F50125913591D2
:101900004591559166E271E0C301FCDE8F3F19F409
:1019100086E991E0D9DEF9E2AF0EB11C2BE4A21604
:1019200021E0B20609F0A7CF2FEF3FEFA90166E251
:1019300071E081E291E0E6DE81E0A096EEE047C74B
:101940004F925F926F927F928F929F92AF92BF92CF
:10195000DF92EF92FF920F931F93CF93DF9300D00C
:1019600000D01F92CDB7DEB7E0902A04F0902B0490
:1019700000912C0410912D04E982FA820B831C83C0
:101980002EE234E0812C912C5401E980FA800B8105
:101990001C818E149F04A006B106ACF47C01F901F1
:1019A000412C512C3201D70141914423C1F00FEF5A
:1019B000E01AF00A5C9145130AC01FEF411A510A60
:1019C000610A710AF0CF6FEF7FEFCB0165C00FEFB7
:1019D000801A900AA00AB00A2B5E3F4FD6CF7D83B3
:1019E000D62E40E150E060E070E06FDE698385E173
:1019F000889D8001899D100D1124025C1B4F40E1E0
:101A000050E060E070E0C80160DEA9812A2FAA0FD3
:101A1000330B440B550B24193509460957092B0183
:101A20003C01B1E04B1A510861087108420E531E87
:101A3000641E751EE1E14E165104610471041CF62A
:101A40002B013C01D801ED2DFD8181E0481A5108A0
:101A50006108710814141504160417041CF48D9100
:101A60008193F3CF12161306140615064CF4D70112
:101A70008D917D0181932150310941095109F2CFA6
:101A800085E1889DF001899DF00D1124E25DFB4FF9
:101A900061897289838994890F900F900F900F90BC
:101AA0000F90DF91CF911F910F91FF90EF90DF90FA
:101AB000BF90AF909F908F907F906F905F904F906E
:101AC0000895CF92DF92EF92FF92FB01C12CD12CAF
:101AD0007601C216D306E406F50664F46191DC01D2
:101AE0006D93CD01662341F0BFEFCB1ADB0AEB0A01
:101AF000FB0AEFCF8FEF01C081E0FF90EF90DF9006
:101B0000CF900895A0E1B0E0E7E8FDE046C68B0184
:101B100049015A0120E130E040E050E0BC01CE0133
:101B20000196CFDF8F3FF1F0C12CD12C76010DC093
:101B300020E130E040E050E0B801CE010196C1DF85
:101B40008FEFC81AD80AE80AF80A80912A049091FF
:101B50002B04A0912C04B0912D04C816D906EA06D6
:101B6000FB0614F08FEF0AC0B801CE010196E8DE43
:101B7000681579058A059B05D9F2862F6096ECE0F9
:101B800028C6A0E1B0E0E6ECFDE00FC6FC01CB0109
:101B90008A012591359145915591BE016F5F7F4F27
:101BA000B1DF682F880F770B880B990B6F3F2FEFF2
:101BB00072078207920731F09801AE014F5F5F4FC5
:101BC000D9DA01C08FEF6096E4E00BC6883091054A
:101BD00024F08E309105F4F066C06115710529F48A
:101BE000E0910201F09103011DC06130710529F4FB
:101BF000E0910201F09103012AC06230710529F4DD
:101C0000E0910201F091030131C0E0910601F091F1
:101C100007013CC008976115710591F4E0910E0130
:101C2000F0910F01308141E050E0BA0102C0660F2F
:101C3000771F8A95E2F7CB0180958323808330C09C
:101C40006130710561F4E0910E01F0910F01908116
:101C500001C0660F8A95EAF7692B608321C0623064
:101C6000710581F4E0910E01F0910F01308141E0A6
:101C700050E0BA0102C0660F771F8A95E2F7CB01E8
:101C80008327DCCFE0911201F0911301208130E035
:101C9000A90102C0559547958A95E2F7242F217036
:101CA000822F90E008950E976115710529F4E09157
:101CB0000801F0910901B6CF6130710529F4E09176
:101CC0000801F0910901C3CF6230710529F4E09158
:101CD0000801F0910901CACFE0910C01F0910D01CA
:101CE000D5CF883091059CF18E309105C4F4E091F8
:101CF0000E01F0910F014081089721E030E0B90119
:101D000002C0660F771F8A95E2F7CB018095942F6A
:101D100098239083E0911001F09111012EC0E09181
:101D20000801F091090140810E9721E030E0B901EE
:101D300002C0660F771F8A95E2F7CB018095942F3A
:101D400098239083E0910A01F0910B0116C0E09175
:101D50000201F0910301408121E030E0B90102C0AD
:101D6000660F771F8A95E2F7CB018095942F982311
:101D70009083E0910401F091050190818923808393
:101D8000089588309105ACF18E309105C4F4E0914E
:101D90000E01F0910F014081089721E030E0B90178
:101DA00002C0660F771F8A95E2F7CB01962F9095B8
:101DB00094239083E0911001F091110130C0E091E3
:101DC0000801F091090140810E9721E030E0B9014E
:101DD00002C0660F771F8A95E2F7CB018095942F9A
:101DE00098239083E0910A01F0910B01908189235F
:101DF00018C0E0910201F0910301408121E030E040
:101E0000B90102C0660F771F8A95E2F7CB01962FC2
:101E1000909594239083E0910401F09105019081C5
:101E2000892B8083089596D060ED77E080E090E084
:101E30007EDBABD210928F0410928E041F921F9201
:101E400087E291E09F938F931F92C4E1CF9381E04B
:101E50008F931F9288E791E19F938F930E9499023D
:101E6000E6DA1F921F928BE291E09F938F931F926D
:101E7000CF931F9280E88F9389E591E19F938F9391
:101E80000E949902D4DA1ED4C7D3EC0161E4DCD3FA
:101E90008DB79EB744960FB6F8949EBF0FBE8DBF08
:101EA000A1D3833321F16CF48133C1F08233C1F7C4
:101EB000C0908204D0908304E0908404F090850464
:101EC00027C08433E9F0853359F760918A04709113
:101ED0008B0480918C0490918D0438C060918204B1
:101EE0007091830480918404909185042FC0609147
:101EF000860470918704809188049091890426C09B
:101F0000C0908604D0908704E0908804F090890403
:101F100020E030E0A901C701B601F7D487FF04C073
:101F2000F7FAF094F7F8F094C701B6015AD5072EE6
:101F3000000C880B990B88D59B01AC01C701B60139
:101F40007FD420E030E048EC52E42ED64AD5CE01D2
:101F50007BD3A6CFE0911401F0911501158287E69D
:101F6000848388E9818386E0828378940895E09170
:101F70001401F0911501908195FFFDCF868308959E
:101F80009091A0018091A1019817D1F3E091A00157
:101F9000F0E0EE55FE4F80812091A00130E02F5FF0
:101FA0003F4F2F7133272093A0010895CF93DF93E4
:101FB000EC018991882311F0DADFFBCFDF91CF911B
:101FC0000895F4DF8DE0D3DF8AE0D1CF1F920F9226
:101FD0000FB60F9211242F933F938F939F93EF93FC
:101FE000FF93E0911401F091150126818091A101E8
:101FF00090E001968F7199273091A001381741F038
:10200000E091A101F0E0EE55FE4F20838093A10105
:10201000FF91EF919F918F913F912F910F900FBE64
:102020000F901F901895DB018C91E0E9F4E080831C
:1020300011968C911197818312968C9182830895C9
:10204000E0E9F4E0DB018D91BD018193B4E0E63974
:10205000FB07C1F70895FC01AC014E5F5F4F8FEFA6
:1020600091E32191822728E030E087FF03C0880FA9
:10207000892701C0880F21503109B9F7E417F50706
:1020800081F70895A2E0B0E0E7E4F0E190C383EFC8
:1020900089838DE28A8320E030E042E0BE016F5FF9
:1020A0007F4F84E4B4D143E150E163E084E4D3D1D1
:1020B00080919004909191049827892798272296DF
:1020C000E2E091C3A2E0B0E0E7E6F0E170C380E3B4
:1020D000898382EA8A8320E030E042E0BE016F5FBC
:1020E0007F4F84E494D180E49CE90197F1F7229634
:1020F000E2E079C3E7DFC6DF21E030E0019611F4CA
:1021000020E030E0C9010895A2E0B0E0E9E8F0E1A4
:102110004EC3892B11F486E601C08DE690E39983C6
:102120008A8320E030E042E0BE016F5F7F4F84E4AD
:102130006ED180EA9FE00197F1F781E090E022966E
:10214000E2E051C3A2E0B0E0E7EAF0E12EC384E2AE
:1021500089831A8220E030E042E0BE016F5F7F4F4A
:1021600084E455D188EC90E020E931E0F901319721
:10217000F1F70197D9F740E250E166E084E46BD1D2
:1021800080E49FE10197F1F7E0E9F4E0A6E9B4E02B
:1021900086E994E021912D938E179F07D9F786E960
:1021A00094E059DF90919804891347C089E994E03D
:1021B00052DF90919B04891340C060919904709103
:1021C0009A04162F072F6091960470919704762732
:1021D0006727762780E090E035D420E03FEF4FE797
:1021E00057E497D320E030E04FE253E4DDD420E021
:1021F00030E044E352E424D36093C6017093C701F6
:102200008093C8019093C901B80180E090E01AD48E
:1022100020E03FEF4FE757E47CD320E030E048EC8C
:1022200052E4C2D46093C2017093C3018093C4018D
:102230009093C50181E090E002C080E090E022969A
:10224000E4E0CFC20F931F93CF93DF938C01EB0198
:1022500079DF009771F440E050E060EC7FE7F8012F
:102260004083518362837383488359836A837B836A
:102270001BC08091C6019091C701A091C801B09187
:10228000C901F80180839183A283B3838091C20145
:102290009091C301A091C401B091C5018883998335
:1022A000AA83BB8381E090E0DF91CF911F910F91D2
:1022B00008956AE070E089E090E03CD16AE070E067
:1022C00089E090E049D197FD0DC0BC01990F880BC2
:1022D000990BBAD360938A0470938B0480938C0417
:1022E00090938D0464E670E080E090E020D9E6CF22
:1022F000A8E0B0E0EDE7F1E156C268E873E180E004
:1023000090E015D9F7DE892B31F468EE73E080E0B8
:1023100090E00DD9FACFB6DEE12CF12C00E010E010
:10232000BE016F5F7F4FCE0105968CDF892BC1F018
:102330008D819E81AF81B8858093820490938304C0
:10234000A0938404B093850489819A81AB81BC8178
:102350008093860490938704A0938804B0938904A3
:1023600068EE73E080E090E0E2D80E31110554F0A1
:1023700081E0EF2809F080E0E82EF12CC701C4DEEF
:1023800000E010E00F5F1F4FCBCF88E48093B800D0
:102390001092B9001092EE01789484E08093BC0012
:1023A00008958091EE018111FCCF8BEC91E00895AE
:1023B000AAECB1E09196EC91919781E08E0F919605
:1023C0008C938091BB00F0E0E653FE4F808308952C
:1023D0002091EB0130E08091EA0190E0019728170D
:1023E000390714F485EC01C085E88093BC0008959A
:1023F0008091CA0186951092EE01E091EC01F09176
:10240000ED01309719F06BEC71E009950895EF92AA
:10241000FF920F931F93CF93DF93D82F8B01C42F7D
:102420007901BFDF81E08093EE01EAECF1E0DD0F9E
:10243000D0838C0F80A311A2F3A2E2A24C2F50E014
:10244000B8018BEC91E022D485EA8093BC00CDB733
:10245000DEB7E6E0C4C10F931F93CF93DF93C82F7D
:10246000D62F8A019EDF81E08093EE01EAECF1E055
:10247000CC0FC160C083DF5FD0A311A213A302A35E
:1024800085EA8093BC00DF91CF911F910F91089551
:102490001F920F920FB60F9211242F933F934F93D9
:1024A0005F936F937F938F939F93AF93BF93EF93BC
:1024B000FF938091B900887F883279F038F48031B9
:1024C00061F0883151F0883001F507C08035C9F0DE
:1024D0008835D1F08034C9F415C0E091EB018091CA
:1024E000EA01E81790F481E08E0F8093EB01F0E0B1
:1024F000E653FE4F80818093BB0085E88093BC004B
:1025000008C056DF65DF05C053DF84E98093BC0057
:102510006FDFFF91EF91BF91AF919F918F917F916D
:102520006F915F914F913F912F910F900FBE0F9040
:102530001F9018950F931F93CF93DF93EC018B019E
:1025400020DCC801CEDB60E070E0CE013FDBDF9134
:10255000CF911F910F910895FF920F931F93CF93E7
:10256000DF93EC018B018AE08A95F1F761E070E07E
:10257000CE012CDB85E38A95F1F760E070E0CE01B7
:1025800025DBC1E3D5E795E0F92E63E070E0C801F3
:102590001DDB892B41F48F2D8A95F1F72197A9F73F
:1025A0008FEF9FEF1BC0C0E0D0E085E0F82E63E026
:1025B00070E0C8010BDB019729F48F2D8A95F1F7A4
:1025C0002196F5CFBE01DD0F880B990B3DD220E09F
:1025D00030E048E652E49DD104D2CB01CDB7DEB75E
:1025E000E5E0FEC0CF93DF93CBDCC93419F0CD2FEB
:1025F000D82FFACFD035D9F7843461F4C1DCC0DCF0
:10260000BFDCBEDCBDDCBCDC082E000C990BDF910E
:10261000CF910895C0E5ECCFCF93DF93B1DCD82FF5
:10262000AFDCC82FADDCD93411F0DC2FFACFC035C8
:10263000E1F78434D1F7A4DCA3DC082E000C990B5D
:10264000C097DF91CF910895A0E6B0E0E9E2F3E111
:10265000ABC0F62E9E012F5A3F4F40E1E0E3F1E080
:10266000D90101900D924A95E1F79F938F933F9383
:102670002F938E010F5F1F4F1F930F9310D3C8012D
:10268000A0DC0F900F900F900F900F900F9088E5A7
:1026900092E020E931E0F9013197F1F70197D9F79C
:1026A0008F2D0F2C000C990B62DC80E991E020E962
:1026B00031E0F9013197F1F70197D9F7C05ADF4FAF
:1026C000E5E08EC080E491E07CDC80EA9FE020E9D8
:1026D00031E0F9013197F1F70197D9F783E491E0FF
:1026E00070DC80E395E720E931E0F9013197F1F7FB
:1026F0000197D9F78AE491E064DC80EA9FE020E961
:1027000031E0F9013197F1F70197D9F786E591E0CA
:1027100058DC80E197E220E931E0F9013197F1F7E7
:102720000197D9F78DE791E04CDC80EA9FE020E942
:1027300031E0F9013197F1F70197D9F789E891E094
:1027400040DC80EA9FE020E931E0F9013197F1F7C0
:102750000197D9F70895052E97FB16F400940FD032
:1027600057FD05D04BD007FC02D046F408C0509569
:102770004095309521953F4F4F4F5F4F089590956D
:102780008095709561957F4F8F4F9F4F08952F9241
:102790003F924F925F926F927F928F929F92AF92F1
:1027A000BF92CF92DF92EF92FF920F931F93CF933E
:1027B000DF93CDB7DEB7CA1BDB0B0FB6F894DEBFD5
:1027C0000FBECDBF09942A88398848885F846E84FB
:1027D0007D848C849B84AA84B984C884DF80EE8045
:1027E000FD800C811B81AA81B981CE0FD11D0FB64E
:1027F000F894DEBF0FBECDBFED010895A1E21A2E01
:10280000AA1BBB1BFD010DC0AA1FBB1FEE1FFF1F94
:10281000A217B307E407F50720F0A21BB30BE40BE4
:10282000F50B661F771F881F991F1A9469F760952B
:102830007095809590959B01AC01BD01CF010895E5
:102840005058BB27AA270ED075C166D130F06BD186
:1028500020F031F49F3F11F41EF45BC10EF4E095BB
:10286000E7FB51C1E92F77D180F3BA1762077307ED
:102870008407950718F071F49EF58FC10EF4E0956A
:102880000B2EBA2FA02D0B01B90190010C01CA012A
:10289000A0011124FF27591B99F0593F50F4503ED5
:1028A00068F11A16F040A22F232F342F4427585FC7
:1028B000F3CF469537952795A795F0405395C9F7DF
:1028C0007EF41F16BA0B620B730B840BBAF0915097
:1028D000A1F0FF0FBB1F661F771F881FC2F70EC036
:1028E000BA0F621F731F841F48F487957795679509
:1028F000B795F7959E3F08F0B3CF9395880F08F0F2
:102900009927EE0F979587950895D9D008F481E01F
:1029100008950CD00FC107D140F0FED030F021F463
:102920005F3F19F0F0C0511139C1F3C014D198F3D1
:102930009923C9F35523B1F3951B550BBB27AA2740
:1029400062177307840738F09F5F5F4F220F331FB2
:10295000441FAA1FA9F333D00E2E3AF0E0E830D07E
:1029600091505040E695001CCAF729D0FE2F27D081
:10297000660F771F881FBB1F261737074807AB074F
:10298000B0E809F0BB0B802DBF01FF2793585F4FC4
:102990002AF09E3F510568F0B6C000C15F3FECF3DE
:1029A000983EDCF3869577956795B795F7959F5F89
:1029B000C9F7880F911D9695879597F90895E1E0DD
:1029C000660F771F881FBB1F621773078407BA073C
:1029D00020F0621B730B840BBA0BEE1F88F7E09597
:1029E000089504D06894B111D9C00895BCD088F07E
:1029F0009F5790F0B92F9927B751A0F0D1F0660FEB
:102A0000771F881F991F1AF0BA95C9F712C0B13005
:102A100081F0C3D0B1E00895C0C0672F782F882718
:102A2000B85F39F0B93FCCF3869577956795B39544
:102A3000D9F73EF490958095709561957F4F8F4FB3
:102A40009F4F0895E89409C097FB3EF490958095B8
:102A5000709561957F4F8F4F9F4F9923A9F0F92F64
:102A600096E9BB279395F695879577956795B795E2
:102A7000F111F8CFFAF4BB0F11F460FF1BC06F5FC8
:102A80007F4F8F4F9F4F16C0882311F096E911C0DA
:102A9000772321F09EE8872F762F05C0662371F0FB
:102AA00096E8862F70E060E02AF09A95660F771F0F
:102AB000881FDAF7880F9695879597F90895990FEB
:102AC0000008550FAA0BE0E8FEEF16161706E807F8
:102AD000F907C0F012161306E407F50798F0621B19
:102AE000730B840B950B39F40A2661F0232B242BEE
:102AF000252B21F408950A2609F4A140A6958FEF0D
:102B0000811D811D089597F99F6780E870E060E05E
:102B100008959FEF80EC089500240A941616170676
:102B200018060906089500240A94121613061406BE
:102B300005060895092E0394000C11F4882352F021
:102B4000BB0F40F4BF2B11F460FF04C06F5F7F4FD9
:102B50008F4F9F4F089557FD9058440F551F59F0C0
:102B60005F3F71F04795880F97FB991F61F09F3F7A
:102B700079F087950895121613061406551FF2CFA3
:102B80004695F1DF08C0161617061806991FF1CFF3
:102B900086957105610508940895E894BB2766271A
:102BA0007727CB0197F908950BD0C4CFB5DF28F074
:102BB000BADF18F0952309F0A6CFABCF1124EECFE2
:102BC000CADFA0F3959FD1F3950F50E0551F629F88
:102BD000F001729FBB27F00DB11D639FAA27F00D76
:102BE000B11DAA1F649F6627B00DA11D661F829F9D
:102BF0002227B00DA11D621F739FB00DA11D621F82
:102C0000839FA00D611D221F749F3327A00D611D9E
:102C1000231F849F600D211D822F762F6A2F112480
:102C20009F5750408AF0E1F088234AF0EE0FFF1FD3
:102C3000BB1F661F771F881F91505040A9F79E3F0A
:102C4000510570F060CFAACF5F3FECF3983EDCF304
:102C5000869577956795B795F795E7959F5FC1F747
:102C6000FE2B880F911D9695879597F90895FB0186
:102C7000DC014150504048F005900D920020C9F70A
:102C800001C01D9241505040E0F70895FB01DC0166
:102C900002C001900D9241505040D8F70895AEE027
:102CA000B0E0E4E5F6E181CD0D891E8986E08C83F4
:102CB0001A8309838FEF9FE79E838D83AE01475E62
:102CC0005F4F6F89788DCE01019608D0EF81F8852E
:102CD000E00FF11F10822E96E4E083CDABE0B0E070
:102CE000E3E7F6E154CD6C017B018A01FC01178218
:102CF0001682838181FFBFC1CE0101963C01F6019E
:102D00009381F70193FD859193FF81917F01882342
:102D100009F4ADC1853239F493FD859193FF81911A
:102D20007F01853221F4B60190E0C0D1E8CF912C2B
:102D3000212C312CFFE1F315D8F08B3279F038F4E7
:102D4000803279F08332A1F4232D20611DC08D32B1
:102D500061F0803369F4232D216016C0832D8260D9
:102D6000382EE32DE4603E2E2AC0F32DF8601DC0FE
:102D700037FC2DC020ED280F2A3040F08E32B9F4F8
:102D800036FC75C1232D2064322E19C036FE06C0D4
:102D90008AE0989E200D1124922E11C0EAE02E9E0A
:102DA000200D1124222EF32DF0623F2E08C08C3608
:102DB00021F4832D8068382E02C0883641F4F70153
:102DC00093FD859193FF81917F018111B3CF982F5E
:102DD0009F7D9554933028F40C5F1F4F9FE3998398
:102DE0000DC0833631F0833771F0833509F055C05B
:102DF00020C0F801808189830E5F1F4F882483944F
:102E0000912C530112C02801F2E04F0E511CF80121
:102E1000A080B18036FE03C0692D70E002C06FEF64
:102E20007FEFC50138D14C018201F32DFF773F2E92
:102E300015C0280122E0420E511CF801A080B1808B
:102E400036FE03C0692D70E002C06FEF7FEFC50151
:102E500017D14C01F32DF0683F2E820133FC19C0CD
:102E6000822D90E088169906A0F4B60180E290E0E9
:102E70001DD12A94F5CFF50137FC859137FE81915C
:102E80005F01B60190E012D121102A9421E0821A4C
:102E900091088114910479F7E1C0843611F08936E4
:102EA00039F5F80137FE07C0608171818281938115
:102EB0000C5F1F4F08C060817181072E000C880BCA
:102EC000990B0E5F1F4FF32DFF763F2E97FF09C022
:102ED00090958095709561957F4F8F4F9F4FF068CB
:102EE0003F2E2AE030E0A3011DD1882E861844C071
:102EF000853731F4232D2F7EB22E2AE030E025C015
:102F0000932D997FB92E8F36C1F018F4883579F05A
:102F1000AEC0803719F0883721F0A9C0E92FE061F1
:102F2000BE2EB4FE0DC0FB2DF460BF2E09C034FED2
:102F30000AC0292F2660B22E06C028E030E005C066
:102F400020E130E002C020E132E0F801B7FE07C026
:102F500060817181828193810C5F1F4F06C0608107
:102F6000718180E090E00E5F1F4FA301DBD0882EBF
:102F70008618FB2DFF773F2E36FE0DC0232D2E7FAA
:102F8000A22E891458F434FE0BC032FC09C0832DE4
:102F90008E7EA82E05C0B82CA32C03C0B82C01C06F
:102FA000B92CA4FE0FC0FE01E80DF11D8081803315
:102FB00021F49A2D997EA92E09C0A2FE06C0B394D1
:102FC000B39404C08A2D867809F0B394A3FC10C092
:102FD000A0FE06C0B21480F4280C922C9B180DC0E1
:102FE000B21458F4B60180E290E060D0B394F8CF08
:102FF000B21418F42B1802C0982C212CA4FE0FC078
:10300000B60180E390E052D0A2FE16C0A1FC03C03E
:1030100088E790E002C088E590E0B6010CC08A2DF8
:10302000867851F0A1FE02C08BE201C080E2A7FCCD
:103030008DE2B60190E03AD0891430F4B60180E315
:1030400090E034D09A94F8CF8A94F301E80DF11D02
:103050008081B60190E02AD08110F6CF222009F4B9
:103060004ECEB60180E290E021D02A94F7CFF6014F
:103070008681978102C08FEF9FEF2B96E2E1A3CB71
:10308000FC010590615070400110D8F78095909533
:103090008E0F9F1F0895FC01615070400190011038
:1030A000D8F7809590958E0F9F1F08950F931F93CB
:1030B000CF93DF93FB01238121FD03C08FEF9FEFAF
:1030C0002CC022FF16C046815781248135814217CA
:1030D000530744F4A081B1819D012F5F3F4F31839D
:1030E00020838C93268137812F5F3F4F3783268340
:1030F00014C08B01EC01FB010084F185E02D0995E2
:10310000892BE1F6D80116968D919C91179701961F
:1031100017969C938E931697CE01DF91CF911F91B6
:103120000F910895FA01AA27283051F1203181F139
:10313000E8946F936E7F6E5F7F4F8F4F9F4FAF4FBF
:10314000B1E03ED0B4E03CD0670F781F891F9A1FD2
:10315000A11D680F791F8A1F911DA11D6A0F711D86
:10316000811D911DA11D20D009F468943F912AE092
:10317000269F11243019305D3193DEF6CF0108957A
:10318000462F4770405D4193B3E00FD0C9F7F6CFAB
:10319000462F4F70405D4A3318F0495D31FD405273
:1031A000419302D0A9F7EACFB4E0A6959795879509
:1031B00077956795BA95C9F70097610571050895E8
:1031C0009B01AC010A2E0694579547953795279594
:1031D000BA95C9F7620F731F841F951FA01D08952C
:1031E00004002B002A0029002800270026002500C3
:1031F00024002300C0006E756C6C70006D61696EF8
:10320000002F6465762F007479680061677561002E
:1032100041542B43495053454E443D25692C3100C0
:1032200041540041542B5253540041542B43574DA9
:103230004F44453D330041542B43575341503D22A9
:103240004156525F776966695F455350222C22319F
:1032500032333435363738222C312C300041542B60
:103260004349504D55583D310041542B434950532B
:0C32700045525645523D312C38300000CC
:00000001FF
