:100000004AC1000066C1000064C1000062C1000076
:1000100060C100005EC100005CC100005AC1000068
:1000200058C1000056C1000054C1000052C1000078
:1000300050C100004EC1000004C200004AC10000CF
:1000400048C1000046C10000B2C1000042C100002A
:1000500040C100003EC100003CC100003AC10000A8
:100060000C94461136C100000C944B010C946901AC
:100070000C9469010C9469010C9469010C94690158
:100080000C9469010C9469010C9469010C94690148
:100090000C9469010C9469010C9469010C94690138
:1000A0000C9421020C9469010C9469010C9469016F
:1000B0000C94D7010C9469010C9469010C946901AA
:1000C0000C9469010C9469010C9446110C9469011B
:1000D0000000000000000000434F4E534F4C45000D
:1000E0000000B107B107B107B107B107AF07B1070A
:1000F000B107AF070000AF070001000000010000DA
:10010000004E554C4C444556000000B107B107B1B4
:1001100007B107B107AF07B107B107AF070000AFDD
:10012000070002000000000000004E414D45535002
:1001300041434500850C2C0EAF07AF07AF07AF0753
:10014000AF07AF07AF070000AF07006E616D696EC4
:100150006974202864657669636573293A0D0A001D
:100160004552524F522047455453544B2025730A51
:10017000006E616D6573706163653A2064657669D0
:100180006365206E616D6520257320746F6F206C30
:100190006F6E670D0A006E616D6573706163653A1D
:1001A0002063616E6E6F74206D6F756E74202564B0
:1001B0000D0A000A0A416C6C20757365722070721A
:1001C0006F636573736573206861766520636F6D17
:1001D000706C657465642E0A0A000A57656C636F5B
:1001E0006D6520746F2058696E75210A0A0D0958D3
:1001F000696E75204F5320436F7079726967687418
:100200002028632920323031322C20323031350A17
:100210000D09446F75676C617320452E20436F6D27
:10022000657220616E64204352432050726573737F
:100230002C20496E632E0A0A0D0958696E75204FED
:100240005320666F72204156522061746D6567615C
:10025000333238702076302E312028632920323016
:1002600032300A0D0952616661656C2049676E6122
:1002700063696F205A7572697461203C72616661AE
:100280004066692E756E636F6D612E6564752E61B3
:10029000723E0A0A0D0011241FBECFEFD8E0DEBF68
:1002A000CDBF11E0A0E0B1E0E0E6FEE202C00590C3
:1002B0000D92AA37B107D9F724E0AAE7B1E001C04F
:1002C0001D92A332B207E1F70C94FB050E944E0E7B
:1002D000D4C296CEFF93EF93FC0100820FB6F89440
:1002E00004A21182228233824482558266827782FE
:1002F00080869186A286B386C486D586E686F786F2
:10030000008B118B228B338B448B558B668B778BB9
:10031000808F918FA28FB38FC48FD58F0F90068E51
:100320000F90078E0DB600A20EB601A2FB0100A031
:100330000DBE01A00EBE078C0F92068C0F92D58DBC
:10034000C48DB38DA28D918D808D778966895589F5
:1003500044893389228911890089F784E684D58408
:10036000C484B384A284918480847780668055801D
:10037000448033802280118004A00FBE0080EF9162
:10038000FF910895E0910001F0910101158287E647
:10039000848386E0828388E181830895E09100016F
:1003A000F0910101908195FFFDCF868308958F9391
:1003B0008091C60080937A018F911895A4E0B0E0F7
:1003C000E4EEF1E00C94E111462F572FBC011982A5
:1003D0001A821B821C8219821A821B821C828981CA
:1003E0009A81AB81BC8184179507A607B70720F0D7
:1003F0002496E2E00C94FD11000089819A81AB8182
:10040000BC810196A11DB11D89839A83AB83BC83F6
:10041000E6CF80E284B92D9A60E47DE083E090E04D
:10042000CDDF2D9860E47DE083E090E0C7CF1092AF
:100430007B0110927C0110927D0110927E0181E07F
:1004400008951F920F920FB60F9211242F933F938E
:100450004F935F936F937F938F939F93AF93BF93CC
:10046000EF93FF938091850190918601A091870180
:10047000B09188010196A11DB11D809385019093D3
:100480008601A0938701B0938801883E9340A1051F
:10049000B105D8F08091890190918A01A0918B01DA
:1004A000B0918C010196A11DB11D8093890190939B
:1004B0008A01A0938B01B0938C0110928501109258
:1004C000860110928701109288018091830190919A
:1004D000840126E0289FF001299FF00D1124E55D9D
:1004E000FC4F828193818430910584F4289FF00130
:1004F000299FF00D1124E55DFC4F808191810197CA
:1005000091838083892B11F40E949C0B80917F0141
:1005100090918001A0918101B09182010197A0404A
:10052000B040C9F080937F0190938001A093810136
:10053000B0938201FF91EF91BF91AF919F918F9105
:100540007F916F915F914F913F912F910F900FBECF
:100550000F901F90189501D7EDCF4DD69093840141
:100560008093830181E090E0A0E0B0E080937F0180
:1005700090938001A0938101B09382011092890130
:1005800010928A0110928B0110928C0110928501B9
:1005900010928601109287011092880185B58360C0
:1005A00085BD84B5826084BD89EF87BDEEE6F0E04D
:1005B0008081826080830895CF92DF92EF92FF92D4
:1005C000CF93DF936B017C01C2D4D82F83E0C81690
:1005D000D104E104F10458F08D2FBCD4CFEF8C2F5F
:1005E000DF91CF91FF90EF90DF90CF90089529E2B7
:1005F0002C9DC0012D9D900D112480539F4FFC0117
:1006000076960590F491E02D0995C82F8D2FA2D4F0
:10061000E6CFA4E0B0E0EFE0F3E00C94D111698CF8
:100620005A8C0B8D1C8D2D8C3E8C8F8C48A08FD4BA
:10063000782EC8018034910514F480E490E003968C
:100640008C7F9C01990F440B550B29833A834B8374
:100650005C83CA01B9011ED28C01019681F480E647
:1006600091E00E94D50B872D75D4CC24CA94DC2C44
:100670007601C701B6012496E2E10C94ED11609178
:100680008D0170918E0180918F0190919001A12C2C
:10069000B12CEBE59E2E24E030E040E050E00E94DB
:1006A000AB116B017C016F5F7F4F8F4F9F4F9C9C05
:1006B000F0019D9CF00D1124E554FE4F2081318105
:1006C000232B59F04FEFA41AB40A54E0A516B10435
:1006D00011F7CC24CA94DC2C760160938D017093C1
:1006E0008E0180938F01909390018FEFC816D806EA
:1006F000E806F80609F4B3CF121413040CF0AFCFD8
:100700008091950190919601A0919701B0919801E7
:100710000196A11DB11D8093950190939601A09320
:100720009701B09398018BE58C9D50018D9DB00C85
:100730001124F501E554FE4F85E090E0918380831C
:100740003382228211AF00AF29813A814B815C81D3
:1007500022AF33AF44AF55AFEB5BFF4F1082E82DB4
:10076000F42DD501A750BE4F9F01295F3F4F8191C6
:100770008D93811519F0E217F307C9F72BE52C9D2E
:10078000C0012D9D900D1124AC0145545E4F4A01CE
:100790008F5F9D4F2FEF3FEFDC012D933C9371D185
:1007A000F401E85BFF4F6083718382839383389603
:1007B00011921192119211921192118210828AEA71
:1007C000F801808329A13AA1D4019B963C932E93F2
:1007D0009A97F501E154FE4F80E090E01192019666
:1007E00086329105D9F78BE58C9DF0018D9DF00D3A
:1007F0001124E554FE4F64AA55AA66A257A280E8C8
:1008000080A7C50189519E4FDC01FE01B39640E0EF
:1008100050E0421753072CF1F9017696EE0FFF1FB7
:100820006BE56C9DA0016D9D500D1124E40FF51F2B
:10083000E554FE4F11821082FA01E554FE4F358FC8
:10084000248F938F828F8AE99BE0D8018E939E93A9
:100850006E925E920550110915A304A3872D7AD3D9
:1008600008CF619171916D937D934F5F5F4FD1CFB1
:1008700061E070E080E090E0089503D174C3A0E0EF
:10088000B0E0E5E4F4E00C94D1118C016A017B0145
:100890005ED3282FC114D104E104F10471F08091DA
:1008A000290390912A030817190738F0809127032C
:1008B000909128038017910740F4822F4BD38FEF3C
:1008C000CDB7DEB7E2E10C94ED11D701C601079672
:1008D000A11DB11D887F092E000CAA0BBB0B209017
:1008E000990130909A01C9E9D1E02114310421F035
:1008F0002016310608F478C06801012E000CEE08BD
:10090000FF08F1E0C939DF0709F475C08A809B80D0
:10091000AC80BD80AE010D2E000C660B770B480D30
:10092000591D6A1D7B1DC416D506E606F70628F27A
:100930002101032C000C660877082114310461F0B2
:100940004C015D018C0C9D1CAE1CBF1C481459044D
:100950006A047B0408F4B1CF80909B0190909C01C5
:10096000A0909D01B0909E01880E991EAA1EBB1EEC
:1009700080929B0190929C01A0929D01B0929E0159
:100980004C155D056E057F05D1F54A815B816C8153
:100990007D81840F951FA61FB71F8A839B83AC831D
:1009A000BD83AE010D2E000C660B770B480F591F4F
:1009B0006A1F7B1F441555056605770589F4F1010B
:1009C0004281538164817581840F951FA61FB71FD3
:1009D0008A839B83AC83BD83808191819983888343
:1009E000822FB8D281E06CCFF10140813181E101E9
:1009F000242E332E7ACF40E050E0BA0199CFF8018F
:100A00003182208282839383A483B58319830883F0
:100A1000E801C7CF26E0269FF001279FF00D1124A3
:100A2000E55DFC4FA281B38144815581249FF00193
:100A3000259FF00D1124E55DFC4FB383A2832A9F0F
:100A4000F0012B9FF00D1124E55DFC4F558344838D
:100A5000089546E0489F9001499F300D1124255D7F
:100A60003C4FF90162817381643071052CF4072ECB
:100A7000000C880B990BCECF6FEF7FEF8FEF9FEFBE
:100A800008956091910170919201809193019091EC
:100A900094010895A0E0B0E0E0E5F5E00C94DB11EE
:100AA0006B017C0154D2C114D104E104F10441F47E
:100AB00051D28FEF9FEFCDB7DEB7E8E00C94F7117E
:100AC00097E0C90ED11CE11CF11C98EFC9220D2C36
:100AD000000CEE08FF08E0919901F0919A01A0E066
:100AE000B0E0C0E0D0E029E931E0309791F52097FF
:100AF000F9F20A811B812C813D810C151D052E0503
:100B00003F05D1F5288139812D933C9340919B017C
:100B100050919C0160919D0170919E014C195D095D
:100B20006E097F0940939B0150939C0160939D0146
:100B300070939E010FD2D701C6010497A109B10994
:100B4000AE01DD0F660B770B840F951FA61FB71F35
:100B5000B2CF42815381648175814C155D056E056C
:100B60007F0540F49D0140819181D9019F01E42FCF
:100B7000F92FBBCFEF01F7CF0C191D092E093F0943
:100B80000A831B832C833D83AE01DD0F660B770B3D
:100B9000400F511F621F731FEA01B8CFCF92DF923F
:100BA000EF92FF92CF93DF936B017C01D0D1D82FCE
:100BB00083E0C816D104E104F10458F08D2FCAD1A6
:100BC000CFEF8C2FDF91CF91FF90EF90DF90CF9000
:100BD000089529E22C9DC0012D9D900D1124805374
:100BE0009F4FFC0172960590F491E02D0995C82F56
:100BF0008D2FB0D1E6CF64D386E091E09F938F93A1
:100C000099D28AED91E0D1D5C4D21092950110927B
:100C10009601109297011092980110928D031092F4
:100C20008E0310928F0310929003EBEBF1E00F9084
:100C30000F901182108216AE11AE10AE1382128286
:100C4000E55AFF4F83E0E732F80799F7CFE9D1E0A3
:100C5000188219821A821B821C82CDD29E838D83B8
:100C6000279691E0CB3BD90799F7E1DBC4D290936B
:100C70008C0380938B0360E070E0CB018FDF61E039
:100C800070E080E090E08ADF62E070E080E090E079
:100C900085DF63DCE0919901F0919A0180E090E0BA
:100CA000DC01309709F046C0BF93AF939F938F93B9
:100CB00084E191E09F938F933DD21F921F921F92E8
:100CC0001F928AE291E09F938F931F928AE08F9305
:100CD0001F9280E48F931F921F929BDC462F572F09
:100CE0008BE5849FF001859FF00D1124E554FE4FA4
:100CF00081E090E0918380832FD11F921F921F92F9
:100D00001F9280E391E09F938F931F9284E18F93D2
:100D100081E08F931F928EE49EE09F938F9379DC06
:100D2000F2D38DB79EB74E960FB6F8949EBF0FBE06
:100D30008DBFFFCF4281538164817581840F951FE0
:100D4000A61FB71F0190F081E02DABCFCF92DF92AD
:100D5000EF92FF926B017C01CA01445051094B3064
:100D6000510508F057C034E0C316D104E104F10482
:100D700008F050C03BE5369FF001379FF00D11247D
:100D8000E554FE4F40815181452B09F443C036E0C4
:100D9000389FF001399FF00D1124E55DFC4F428131
:100DA0005381022E000C330B86E0849FF001859F57
:100DB000F00D1124E55DFC4F6081718162177307AE
:100DC00030F5648175818C9DD0018D9DB00D11240D
:100DD000A55DBC4F13965C934E93129715967C932A
:100DE0006E9314972D933C93869FD001879FB00DEF
:100DF0001124A55DBC4F1396DC92CE921297D5823A
:100E0000C48281E0FF90EF90DF90CF9008954281FF
:100E10005381CBCF8FEFF6CF8F929F92AF92BF923D
:100E2000CF92DF92EF92FF921F93CF93DF936B01EC
:100E30007C01CA01E9019A01245031092B303105A6
:100E400008F083C024E0C216D104E104F10408F0E4
:100E50007CC02BE5269FF001279FF00D1124E5545F
:100E6000FE4F20813181232B09F46FC04A01052EEA
:100E7000000CAA08BB0826E0249FF001259FF00D76
:100E80001124E55DFC4F42815381052E000C660B59
:100E9000770B0196092E000CAA0BBB0B16E08417EA
:100EA0009507A607B70799F516E01C9DF0011D9D53
:100EB000F00D1124E55DFC4F5383428395828482BB
:100EC000D183C083189D9001199D300D1124255D9B
:100ED0003C4FF901D382C282149FF001159FF00D9F
:100EE0001124E55DFC4FD582C48284179507A607BF
:100EF000B70721F581E0DF91CF911F91FF90EF902F
:100F0000DF90CF90BF90AF909F908F900895149FE7
:100F1000F001159FF00D1124E55DFC4F208131811A
:100F2000C217D30708F2C21BD30B228133814A01B7
:100F30005B01A901330F660B770BB1CF80819181E3
:100F40008C1B9D0B91838083D5CF8FEFD4CF8FB730
:100F5000F89408958FBF089578940895FFCF8FEF88
:100F6000089581E00895CF92DF92EF92FF921F9350
:100F7000CF93DF936B017C01EADF182F84E0C81662
:100F8000D104E104F10408F091C08BE58C9DF001DF
:100F90008D9DF00D1124E554FE4F80819181892BA8
:100FA00009F484C0C114D104E104F10409F47EC041
:100FB0008091950190919601A0919701B09198012F
:100FC0000197A109B1098093950190939601A0938F
:100FD0009701B09398010297A105B1050CF4D8D3FD
:100FE0002BE52C9DC0012D9D900D1124EC01C554C5
:100FF000DE4F8D5F9D4FFC01608171818281938105
:10100000A7019601B4D2FE01EF5AFF4F60817181B2
:10101000072E000C880B990BCFDAFE01ED5AFF4F1B
:1010200060817181072E000C880B990BC5DAFE01D7
:10103000EB5AFF4F60817181072E000C880B990BD2
:10104000BBDA4AAD5BAD6CAD7DAD495F5F4F6F4FB5
:101050007F4F487F052E000C660B770B88AD99AD4E
:10106000092E000CAA0BBB0B0496A11DB11D841BFD
:10107000950BA60BB70B03DC888199818430910511
:1010800029F1F8F48130910529F1029709F43DC066
:101090008BE58C9DF0018D9DF00D1124E554FE4FE4
:1010A00011821082812F56DF81E003C0812F52DF31
:1010B0008FEFDF91CF911F91FF90EF90DF90CF9056
:1010C00008958630910551F0079711F7C701B601D1
:1010D000E3D2DECF1982188240D1F8CFCA5BDF4F4E
:1010E0008881998127E0289FF001299FF00D112424
:1010F000E156FE4F81819281A381B4810196A11DA9
:10110000B11D81839283A383B483C701B60182DCBE
:10111000BFCFCF93DF93C82F1ADFD82FCA3011F477
:101120008DE03CD98C2F3AD98D2F14DF81E0DF91EF
:10113000CF910895A1E5B0E0E0EAF8E00C94DD116C
:101140008E01065A1F4FF801E190F1908F0121E5C1
:1011500030E040E050E060E070E0CE0101960E9497
:101160007C149801A70160E570E0CE0101960E9411
:1011700083148E010F5F1F4FF80181918F01811140
:1011800006C081E0CF5ADF4FE6E00C94F911C1DFD1
:10119000F3CFCF93DF9383E294E0A0E8BB270196DF
:1011A000A11DB11DEC0190932A0380932903AC018A
:1011B00048515C4F5093280340932703E9E9F1E03D
:1011C0009183808319821882052E000C660B770BA1
:1011D000092E000CAA0BBB0B481B590B6A0B7B0B8F
:1011E0004A835B836C837D834283538364837583EB
:1011F000DF91CF9108958091020190910301803198
:10120000910544F59C012E5F3F4F309303012093DD
:101210000201AC014F5F5F4F66E0689FF001699F7C
:10122000F00D1124E55DFC4F538342832FEF3FEF18
:101230003583248331832083649FF001659FF00D03
:101240001124E55DFC4F33832283958384831182CF
:10125000108208958FEF9FEF0895A0E0B0E0E3E3E0
:10126000F9E00C94DA116B017C01142FC52FB22E1A
:10127000032F6DDED82F83E0C816D104E104F104FA
:1012800048F08D2F67DECFEF8C2FCDB7DEB7E9E0CA
:101290000C94F61129E22C9DC0012D9D900D112476
:1012A00080539F4FFC0174960590F491E02D4B2DD7
:1012B000502F612F7C2F0995C82F8D2F4BDEE4CF47
:1012C000F894A7D8A6D85ED8D3CACF939C0124504F
:1012D00031092B303105E8F4C6E0C89FF001C99F01
:1012E000F00D1124E55DFC4F22813381243031055E
:1012F00084F4AFDBC69FF001C79FF00D1124E55DBC
:10130000FC4F2FEF3FEF3583248333832283CF912C
:1013100008956FEF7FEFCB01FACF6430710581053F
:101320009105C8F42BE5269FF001279FF00D1124AD
:10133000E554FE4F20813181232B69F022E030E01B
:101340003183208340918B0350918C032281FEDCFA
:1013500004D081E008958FEF0895CF92DF92EF924D
:10136000FF9280918D0390918E03A0918F03B09195
:101370009003181619061A061B0644F481E08093A0
:101380009103FF90EF90DF90CF900895C09091016E
:10139000D0909201E0909301F09094018BE58C9DA8
:1013A000F0018D9DF00D1124E554FE4F8081918157
:1013B000019721F540918B0350918C032281338159
:1013C00086E0849FD001859FB00D1124A55DBC4FA0
:1013D00012966D917C91869FD001879FB00D11244C
:1013E000A55DBC4F8D919C918217930750F282E0CE
:1013F00090E091838083C701B601A8DC80918B03C4
:1014000090918C0362DF462F572FBC0140939101CE
:101410005093920160939301709394012BE5249F64
:10142000C001259F900D1124FC01E554FE4F41E0C1
:1014300050E05183408341E050E060E070E0409331
:101440007F01509380016093810170938201BC0100
:1014500061547E4F2C9DC0012D9D900D112481540F
:101460009E4F0E946A018DCF462F572FBC014130FD
:1014700051056105710539F042305105610571056D
:1014800001F18FEF089580918D0390918E03A091CB
:101490008F03B0919003AC01BD014F5F5F4F6F4F61
:1014A0007F4F40938D0350938E0360938F0370930F
:1014B0009003892B8A2B8B2B11F41092910381E0DE
:1014C000089580918D0390918E03A0918F03B09128
:1014D0009003181619061A061B069CF60197A10917
:1014E000B10980938D0390938E03A0938F03B093E3
:1014F0009003892B8A2B8B2B11F7809191038115F7
:10150000F1F22BDFDCCFCF92DF92EF92FF920F93BD
:101510001F93CF936B017C011ADDC82F84E0C8169E
:10152000D104E104F10460F48BE58C9DF0018D9D04
:10153000F00D1124E554FE4F80819181009769F4EC
:101540008C2F08DD0FEF1FEFC801CF911F910F9176
:10155000FF90EF90DF90CF900895059789F7028173
:101560001381C701B601D9DE8C2FF4DCEDCFA0E0EA
:10157000B0E0ECEBFAE01EC76B017C01B22E032F4A
:10158000142FD52FE4DCC82F84E0C816D104E10461
:10159000F10460F48BE58C9DF0018D9DF00D11241C
:1015A000E554FE4F80819181009739F48C2FD2DC75
:1015B0008FEFCDB7DEB7E9E019C7DF01A05BBF4F02
:1015C0002C912111F3CFE45BFF4FB0820183128392
:1015D000D38321E02C938330910539F4C701B60100
:1015E0009CDE8C2FB7DC81E0E4CF0797D1F7C701F1
:1015F000B60152D0F3CFCF92DF92EF92FF92CF930A
:101600006B017C01F7FC1CC0C114D104E104F1049E
:1016100019F4C2D081E015C09ADCC82F4091830133
:101620005091840160919101709192018091930198
:10163000909194019601F0DB8F3F49F48C2F8ADC66
:101640008FEFCF91FF90EF90DF90CF900895809132
:101650009101909192012BE5289FF001299FF00DB7
:101660001124E554FE4F84E090E09183808375DE81
:101670008C2F70DCCFCF9B01AC012C3984EC380768
:1016800080E24807510530F4A8EEB3E080D6B3DF1E
:1016900081E008958FEF0895CF92DF92EF92FF924D
:1016A000CF936B017C0153DCC82F84E0C816D104B2
:1016B000E104F10460F48BE58C9DF0018D9DF00D4B
:1016C0001124E554FE4F80819181009749F48C2FBD
:1016D00041DC8FEFCF91FF90EF90DF90CF90089596
:1016E0008430910511F0079791F726E02C9DD001E9
:1016F0002D9DB00D1124A55DBC4F12968D919C912E
:101700001397843091057CF4289FF001299FF00DF8
:101710001124E55DFC4F808191812D913C91820FD8
:10172000931F91838083C701B60174D98C2F12DC7B
:1017300081E0D0CFA6D917CCCF9361E070E080E0F4
:1017400090E092DEC6E08091830190918401C89F71
:10175000F001C99FF00D1124E55DFC4F228133811A
:10176000243031053CF062E070E080E090E07CDE07
:10177000CF910895C29FF001C39FF00D1124E55D44
:10178000FC4F20813181232B71F79FDDC6DDDBCF3C
:1017900083EB91E00AD0E2CBCF93D9DBC82FDDDD1C
:1017A0008C2FD8DB81E0CF91089508950F931F937C
:1017B000DC018A019B0160E070E0CB0160177107DA
:1017C0008207930734F06FEF7FEFCB011F910F91EA
:1017D0000895FD016F5F7F4F8F4F9F4F41914115DE
:1017E000A9F3DF01EBCF2F923F924F925F927F924E
:1017F0008F929F92AF92BF92CF92DF92EF92FF9221
:101800000F931F93CF93DF93EC018B0169017A0152
:101810009EDB782E40E150E060E070E0CE01C6DF54
:101820004B015C0141E050E060E070E0C801BEDFC8
:10183000462F572FBC018FEF88169806A806B806CA
:10184000C1F04F3F5F4F6F4F7F4F99F0F3E0CF16DE
:10185000D104E104F10468F44091920350919303A0
:1018600060919403709195034430510561057105B1
:10187000ACF0872D6FDB8FEFDF91CF911F910F9130
:10188000FF90EF90DF90CF90BF90AF909F908F90A0
:101890007F905F904F903F902F90089585E1849FB7
:1018A000F001859FF00D1124EA56FC4F212C312CBC
:1018B00021018881219681938FEF281A380A480ADE
:1018C000580A281439044A045B049CF3F801808107
:1018D00095E1949FF001959FF00D1124EA56FC4F7D
:1018E000808BC18AD28AE38AF48A4F5F5F4F6F4F41
:1018F0007F4F4093920350939303609394037093AC
:101900009503872D27DB81E0B7CFA0E2B0E0EAE8BE
:10191000FCE04BC586E0E5E3F1E0DE015B9601907B
:101920000D928A95E1F71092920310929303109210
:101930009403109295038BE491E037DF80EDE82E5D
:1019400080E0F82E6E0121E1C20ED11CCE0101967D
:1019500040E050E0BA019E01255E3F4F3C018C0102
:10196000F901E0812F5F3F4FDC01EC9301964A01C2
:101970005B014F5F5F4F6F4F7F4FE111F0CF4AE048
:1019800050E0B701685F7F4FC6019ED7C601EFEFF9
:101990008E1A9E0AAE0ABE0AF0E18F169104A104C7
:1019A000B1045CF181E791E0B0E18B169104A104F0
:1019B000B10469F4F701259135914591559169E29A
:1019C00071E0C30110DF8F3F19F486E991E0EDDE8D
:1019D000F9E2EF0EF11C2BE4E21621E0F20609F029
:1019E000B5CF2FEF3FEFA90169E271E085E391E008
:1019F000FADE81E0A096EEE0F4C4FC0181919FEB59
:101A0000980F9A3108F4805ED8018D93811591F278
:101A1000CF018D01BCCFA5E0B0E0E0E1FDE0C1C4A5
:101A20001B01409092035090930360909403709038
:101A3000950346E953E01B821A82C12CD12C760112
:101A4000C414D504E604F70434F06FEF7FEFCB0144
:101A50002596E2E1C2C49C01FA01812C912C54012B
:101A600089016191611159C040E150E060E070E08E
:101A70009DDE69838A819B818A559C4F9B838A83E3
:101A800040E150E060E070E091DE2B013C01D301C9
:101A9000C2010197A109B109E9814E2FEE0F550B43
:101AA000660B770B481959096A097B094C015D01DE
:101AB000840E951EA61EB71EF1E18F169104A10497
:101AC000B1040CF0C2CF530142013D822C82F1E0FF
:101AD0008F1A9108A108B108181419041A041B04DC
:101AE000B4F1FC01141415041604170414F0E0E01A
:101AF000F0E0E20DF31D141615061606170694F114
:101B000085E18C9DF0018D9DF00D1124EA56FC4F6E
:101B100061897289838994899BCF2F5F3F4FD80158
:101B20007C91761306C0BFEF8B1A9B0AAB0ABB0AE7
:101B300097CFEFEFCE1ADE0AEE0AFE0A2A813B812A
:101B40002B5E3F4F3B832A834B5E5F4F79CFEA8109
:101B5000FB812191FB83EA83EC81FD812193FD834D
:101B6000EC83B5CFD8018D91819341505109610922
:101B700071098D01C0CFCF92DF92EF92FF920F9348
:101B80001F93022F132F9A01DC01C12CD12C760157
:101B9000C016D106E206F30644F08FEF1F910F91B5
:101BA000FF90EF90DF90CF900895FB0181918D938E
:101BB000811539F08FEFC81AD80AE80AF80ABF0170
:101BC000E7CF81E0EBCFA0E1B0E0E8EEFDE0EDC3D0
:101BD000162F072F69017A0120E130E040E050E044
:101BE000BC01CE0101965C01C6DF7A2C6B2C8F3FC5
:101BF00079F58FEF6096EEE0F4C3612F702F872D9B
:101C0000962D09DF382F292FCB01A32FB22F8C154A
:101C10009D05AE05BF0571F720E130E040E050E0E2
:101C2000612F702F872D962DA6DF9FEF891A990AB5
:101C3000A90AB90A8091920390919303A091940309
:101C4000B091950388169906AA06BB06B4F2D1CFC7
:101C5000812C912C5401EECFA0E1B0E0E1E3FEE055
:101C6000AEC3FC01CB018A01259135914591559177
:101C7000BE016F5F7F4FA7DF282F682F880F770B7C
:101C8000880B990B2F3F41F09801AE014F5F5F4FDA
:101C9000E4DA6096E4E0AFC38FEFFBCFCDB7DEB7F9
:101CA00028970FB6F894DEBF0FBECDBF32D06CD2EE
:101CB00068E873E180E090E09EDC60D1892B31F42C
:101CC00068EE73E080E090E096DCFACF8BE391E081
:101CD0005FD01AD1A9D088E291E05AD0E12CF12C42
:101CE00000E010E0BE016F5F7F4FCE0105961CD271
:101CF00061E070E080E090E0BEDC0E31110531F46F
:101D000081E0E826C70145D100E010E00F5F1F4FDA
:101D1000E9CFE0910401F0910501158287E6848303
:101D200088E1818386E082830895E0910401F09147
:101D30000501908195FFFDCF86830895A6E0B0E070
:101D4000E3EAFEE03AC30097B1F09E012F5F3F4FF8
:101D50007901F90100E010E02AE030E018161906D8
:101D60007CF00E0D1F1D0E151F0539F0F801829134
:101D70008F01DBDFF8CF80E3D8DF2696E6E039C3BA
:101D8000B901D6D20F5F1F4F805D8193CB01E6CFA3
:101D9000CF93DF93EC018991811103C0DF91CF9143
:101DA0000895C3DFF8CFCF92DF92EF92FF92CF93E7
:101DB000DF936B017C0120E030E0A901C701B6018F
:101DC000D1D387FF06C08DE2B0DFF7FAF094F7F8C1
:101DD000F094C701B60132D4D62FC72F62D49B012D
:101DE000AC01C701B60159D320E030E048EC52E421
:101DF00008D524D46B017C018D2F9C2F9FDF8EE2B0
:101E000094DF8AE0C816D104E104F10414F480E3FD
:101E10008CDFC60193DF8AE088DFDF91CF91FF90EE
:101E2000EF90DF90CF900895A5E1B0E0E9E1FFE009
:101E3000C4C29C0181E1EFE3F1E0DE011196019063
:101E40000D928A95E1F78E010E5E1F4FFE01769688
:101E50007801D901AF70BB27CE010196A80FB91F39
:101E60008C91829384E0369527958A95E1F70E1739
:101E70001F0779F780E359DF88E757DF0C5F1F4FB3
:101E8000F70181917F0151DFE016F106C9F76596F0
:101E9000E6E0AFC2FB018081A8EFB3E08C938181C3
:101EA00011968C931197828112968C930895FB0161
:101EB000A8EFB3E0CB01069621912D93E817F9071F
:101EC000D9F70895FC018081809528E030E041E356
:101ED000982F990F87FF03C0892F842701C0892F6E
:101EE00021503040A9F79181892728E030E041E373
:101EF000982F990F87FF03C0892F842701C0892F4E
:101F000021503040A9F70895A2E0B0E0E9E8FFE0F1
:101F100058C283EF89838DE28A8320E030E042E07B
:101F2000BE016F5F7F4F84E470D14AE45FE063E0FD
:101F300084E48FD18091F8039091F9039827892741
:101F400098272296E2E059C2A2E0B0E0E9EAFFE079
:101F500038C280E3898382EA8A8320E030E042E06D
:101F6000BE016F5F7F4F84E450D18FE39CE90197FE
:101F7000F1F700C000002296E2E03FC2E5DFC4DFD7
:101F80009C0181E090E02F3F3F4F11F480E090E012
:101F90000895A2E0B0E0EEECFFE013C2892BB9F0A7
:101FA0008DE690E399838A8320E030E042E0BE0131
:101FB0006F5F7F4F84E429D18FE99FE00197F1F7AC
:101FC00000C0000081E090E02296E2E016C286E6C2
:101FD000E8CFA2E0B0E0EEEEFFE0EFC184E289835B
:101FE0001A8220E030E042E0BE016F5F7F4F84E460
:101FF0000CD12FEF89EF90E0215080409040E1F725
:1020000000C0000047E55FE066E084E422D18FE392
:102010009FE10197F1F700C00000E8EFF3E0AAEEBE
:10202000B3E081918D9393E0EE3FF907D1F78AEE0B
:1020300093E048DF9091EC03891373C08DEE93E039
:1020400041DF9091EF0389136CC0E090EA03F090B8
:10205000EB03FE24EF24FE240091ED031091EE0328
:10206000102701271027B70180E090E018D320E067
:102070003FEF4FE757E47AD220E030E04FE253E4FD
:10208000C0D320E030E044E352E407D26093F4038D
:102090007093F5038093F6039093F703B80180E003
:1020A00090E0FDD220E03FEF4FE757E45FD220E021
:1020B00030E048EC52E4A5D36093F0037093F10351
:1020C0008093F2039093F30380E591E061DEC70112
:1020D00035DE8EE591E05CDEC80130DE85E691E01C
:1020E00057DE88E691E054DE6091F4037091F503C9
:1020F0008091F6039091F70356DE84E791E048DE85
:102100006091F0037091F1038091F2039091F303D9
:102110004ADE85E691E03CDE81E090E02296E6E052
:1021200068C180E090E0FACF0F931F93CF93DF93C5
:10213000EC018B014EDF009791F440E050E060EC41
:102140007FE7488359836A837B83F8014083518307
:1021500062837383DF91CF911F910F910895409116
:10216000F4035091F5036091F6037091F7034883EF
:1021700059836A837B834091F0035091F10360910E
:10218000F2037091F303E1CF88E48093B8001092DA
:10219000B90010922204789484E08093BC000895E2
:1021A000809122048111FCCF8FEF93E00895AEEF70
:1021B000B3E09196EC91919781E08E0F91968C937C
:1021C0008091BB00F0E0E250FC4F808308952091A5
:1021D0001F0480911E048150990B2817190624F4BE
:1021E00085EC8093BC00089585E8FBCF8091FE03C9
:1021F00010922204E0912004F0912104309721F004
:102200006FEF73E0869509950895EF92FF920F9313
:102210001F93CF93DF93D82F8B01C42F7901C0DF99
:1022200081E080932204EEEFF3E0DD0FD0838C0F8A
:1022300080A311A2E2A2F3A24C2F50E0B8018FEFCD
:1022400093E051D385EA8093BC00CDB7DEB7E6E0DA
:10225000D0C00F931F93CF93DF93C82FD62F8A013F
:102260009FDF81E080932204EEEFF3E0CC0FC160AA
:10227000C083DF5FD0A311A202A313A385EA8093DA
:10228000BC00DF91CF911F910F9108951F920F9283
:102290000FB60F9211242F933F934F935F936F9339
:1022A0007F938F939F93AF93BF93EF93FF9380910F
:1022B000B900887F8034D1F170F4883191F048F40E
:1022C000883079F0803169F084E98093BC008EDF3A
:1022D0001BC08832F8CF803541F18835A9F767DF18
:1022E000F3CFE0911F0480911E04E81768F781E0A6
:1022F0008E0F80931F04F0E0E250FC4F80818093AA
:10230000BB0085E88093BC00FF91EF91BF91AF9136
:102310009F918F917F916F915F914F913F912F91FD
:102320000F900FBE0F901F90189541DF50DFECCF3C
:1023300097FB072E16F4009406D077FD08D068D0DE
:1023400007FC05D03EF4909581959F4F08957095B8
:1023500061957F4F0895052E97FB16F400940FD0DA
:1023600057FD05D069D007FC02D046F408C050954F
:102370004095309521953F4F4F4F5F4F0895909571
:102380008095709561957F4F8F4F9F4F089576D0C0
:10239000A59F900DB49F900DA49F800D911D1124B9
:1023A00008952F923F924F925F926F927F928F92F9
:1023B0009F92AF92BF92CF92DF92EF92FF920F93D4
:1023C0001F93CF93DF93CDB7DEB7CA1BDB0B0FB6DE
:1023D000F894DEBF0FBECDBF09942A88398848889B
:1023E0005F846E847D848C849B84AA84B984C88431
:1023F000DF80EE80FD800C811B81AA81B981CE0F28
:10240000D11D0FB6F894DEBF0FBECDBFED0108950C
:10241000AA1BBB1B51E107C0AA1FBB1FA617B7070A
:1024200010F0A61BB70B881F991F5A95A9F7809526
:102430009095BC01CD010895A1E21A2EAA1BBB1BE9
:10244000FD010DC0AA1FBB1FEE1FFF1FA217B30780
:10245000E407F50720F0A21BB30BE40BF50B661F96
:10246000771F881F991F1A9469F76095709580955A
:1024700090959B01AC01BD01CF010895A29FB001D1
:10248000B39FC001A39F700D811D1124911DB29FA8
:10249000700D811D1124911D08955058BB27AA2746
:1024A0000ED075C166D130F06BD120F031F49F3F72
:1024B00011F41EF45BC10EF4E095E7FB51C1E92F66
:1024C00077D180F3BA17620773078407950718F06E
:1024D00071F49EF58FC10EF4E0950B2EBA2FA02D4E
:1024E0000B01B90190010C01CA01A0011124FF27C1
:1024F000591B99F0593F50F4503E68F11A16F040BC
:10250000A22F232F342F4427585FF3CF46953795BA
:102510002795A795F0405395C9F77EF41F16BA0B7F
:10252000620B730B840BBAF09150A1F0FF0FBB1F2D
:10253000661F771F881FC2F70EC0BA0F621F731F76
:10254000841F48F4879577956795B795F7959E3FD3
:1025500008F0B3CF9395880F08F09927EE0F979561
:1025600087950895D9D008F481E008950CD00FC163
:1025700007D140F0FED030F021F45F3F19F0F0C0F9
:10258000511139C1F3C014D198F39923C9F35523DC
:10259000B1F3951B550BBB27AA2762177307840756
:1025A00038F09F5F5F4F220F331F441FAA1FA9F30C
:1025B00033D00E2E3AF0E0E830D091505040E695FE
:1025C000001CCAF729D0FE2F27D0660F771F881F5F
:1025D000BB1F261737074807AB07B0E809F0BB0B4E
:1025E000802DBF01FF2793585F4F2AF09E3F510572
:1025F00068F0B6C000C15F3FECF3983EDCF386950F
:1026000077956795B795F7959F5FC9F7880F911DE7
:102610009695879597F90895E1E0660F771F881FD3
:10262000BB1F621773078407BA0720F0621B730B86
:10263000840BBA0BEE1F88F7E095089504D06894D8
:10264000B111D9C00895BCD088F09F5790F0B92F30
:102650009927B751A0F0D1F0660F771F881F991FF7
:102660001AF0BA95C9F712C0B13081F0C3D0B1E009
:102670000895C0C0672F782F8827B85F39F0B93F19
:10268000CCF3869577956795B395D9F73EF49095F9
:102690008095709561957F4F8F4F9F4F0895E89477
:1026A00009C097FB3EF490958095709561957F4F9A
:1026B0008F4F9F4F9923A9F0F92F96E9BB27939548
:1026C000F695879577956795B795F111F8CFFAF458
:1026D000BB0F11F460FF1BC06F5F7F4F8F4F9F4F89
:1026E00016C0882311F096E911C0772321F09EE8E7
:1026F000872F762F05C0662371F096E8862F70E04D
:1027000060E02AF09A95660F771F881FDAF7880F26
:102710009695879597F90895990F0008550FAA0B7C
:10272000E0E8FEEF16161706E807F907C0F01216E4
:102730001306E407F50798F0621B730B840B950BE7
:1027400039F40A2661F0232B242B252B21F408953C
:102750000A2609F4A140A6958FEF811D811D0895D9
:1027600097F99F6780E870E060E008959FEF80EC44
:10277000089500240A9416161706180609060895E7
:1027800000240A9412161306140605060895092E4D
:102790000394000C11F4882352F0BB0F40F4BF2BBC
:1027A00011F460FF04C06F5F7F4F8F4F9F4F0895FC
:1027B00057FD9058440F551F59F05F3F71F04795F2
:1027C000880F97FB991F61F09F3F79F087950895D7
:1027D000121613061406551FF2CF4695F1DF08C0F6
:1027E000161617061806991FF1CF86957105610513
:1027F00008940895E894BB2766277727CB0197F9BB
:1028000008950BD0C4CFB5DF28F0BADF18F09523B8
:1028100009F0A6CFABCF1124EECFCADFA0F3959F6E
:10282000D1F3950F50E0551F629FF001729FBB27B7
:10283000F00DB11D639FAA27F00DB11DAA1F649F63
:102840006627B00DA11D661F829F2227B00DA11D16
:10285000621F739FB00DA11D621F839FA00D611D9C
:10286000221F749F3327A00D611D231F849F600DBD
:10287000211D822F762F6A2F11249F5750408AF0F6
:10288000E1F088234AF0EE0FFF1FBB1F661F771F82
:10289000881F91505040A9F79E3F510570F060CFBE
:1028A000AACF5F3FECF3983EDCF38695779567956A
:1028B000B795F795E7959F5FC1F7FE2B880F911DA0
:1028C0009695879597F90895FB01DC01415050409A
:1028D00048F005900D920020C9F701C01D924150AB
:1028E0005040E0F70895FB01DC0102C001900D9219
:1028F00041505040D8F70895DC0101C06D9341501C
:102900005040E0F70895AEE0B0E0E8E8F4E157CDDC
:102910008C01F62FE72FBA01A90186E08C831A8378
:1029200009838F2F9E2F813020E8920710F080E0DE
:1029300090E801979E838D83CE01019611D04D8141
:102940005E8157FD0AC02F813885421753070CF46A
:102950009A01020F131FF80110822E96E4E04BCD6E
:10296000ABE0B0E0E5EBF4E11FCD6C017B018A0147
:10297000FC0117821682838181FFCBC19AE0592E18
:10298000F6012381F70123FD859123FF81917F01CA
:10299000811509F418C1853239F423FD959123FF7F
:1029A00091917F01953221F4B60190E0CBD1E8CF2F
:1029B00030E0912C612C712CF0E27F1640F59B32B7
:1029C000D9F058F49032D1F09332F1F09E3299F56B
:1029D00076FCF9C0689476F806C09D3291F0903389
:1029E000C1F4689470F8F70123FD959123FF91914C
:1029F0007F019111E1CF29C0689471F8689472F851
:102A0000F2CF689473F8EFCF689474F8ECCF77FC4A
:102A10001CC080ED890F8A30C8F676FE05C0959CF3
:102A2000800D1124982EDFCF659C800D1124682E17
:102A3000689475F8D8CF9C3619F4689477F8D3CF9A
:102A40009C3409F44AC0983671F2892F8F7D8554E1
:102A5000833008F444C0933609F464C0933709F412
:102A600067C0933509F472C0943619F0993609F0AD
:102A700099C0F80177FE8FC0619171918191919118
:102A80008F01272D2F76822E97FF09C09095809574
:102A9000709561957F4F8F4F9F4F689487F82AE01C
:102AA00030E0AE014F5F5F4F5A017CD18A19A82EEA
:102AB00086FEBDC0882D8E7FA91408F0B7C084FEA5
:102AC00007C182FCFBC0F82DFE7E8F2EB92C882D0D
:102AD0008678811509F4B8C0F6C031E084CF31158D
:102AE000F1F0085F1F4F8FE3898388248394912C32
:102AF000AE014F5F5F4F5A01E89477F873FC03C053
:102B00008614910498F181149104B1F5611409F4CB
:102B100037CFB60180E290E015D16A94F7CF0C5F11
:102B20001F4FE1CFF801808189830E5F1F4FDDCFFA
:102B3000F801A190B1908F01692D70E076FC02C080
:102B40006FEF7FEFC501F3D04C01D6CFF801A19014
:102B5000B1908F01692D70E076FC02C06FEF7FEFBE
:102B6000C501DAD04C01689477F8C8CFB60180E28D
:102B700090E0E8D06A94C4CFF50177FC859177FEA8
:102B800081915F01B60190E0DDD061106A94F1E0BF
:102B90008F1A9108B8CF61917191072E000C880BA4
:102BA000990B6ECF872CE89484F82AE030E09537B3
:102BB00031F1572D597F852E903791F050F498358B
:102BC000A1F09F36D1F0F601868197812B96EFE038
:102BD00007CC9837C1F774FC05C020E130E00FC086
:102BE000689484F8689482F8F8CF74FE03C0872D47
:102BF0008660882E20E132E002C028E030E0F80153
:102C000087FE0FC061917191819191918F01FE01B9
:102C100031965F01AF01C6D08A19A82EE89487F8D3
:102C200047CF6191719180E090E0F0CF882EBA2C6F
:102C300084FE4DCFFE01EA0DF11D8081803309F045
:102C400040C0282D297E822E83FC0EC080FE4BC002
:102C50009A2CB61418F4960C9B18B62C862D8B194A
:102C60006B1408F480E0B80EB61408F03EC06B1880
:102C700084FE3DC0B60180E390E064D082FE08C0CF
:102C800088E590E081FC02C088E790E0B6015AD068
:102C9000A914C8F1AA94B12C4FEFA41AB40ACE011A
:102CA00001964C01A80EB91EF50182915F01B60193
:102CB00090E048D08A149B04B9F728CFB92C882E0D
:102CC000B9CF82FC02C0B394BFCFB394B394BCCF4E
:102CD000B92C882EFCCEB60180E290E033D07394FC
:102CE0007614C8F3BBCF7B2CFBCF612CC1CF882DD2
:102CF0008678811569F280E281FC8BE287FC8DE2A7
:102D0000B60190E0C4CFB60180E390E01BD09A9466
:102D1000BFCF8FEF9FEF5ACFFC01059061507040FD
:102D20000110D8F7809590958E0F9F1F0895FC0194
:102D30006150704001900110D8F7809590958E0FEA
:102D40009F1F08950F931F93CF93DF93182F092F81
:102D5000EB018B8181FD09C01FEF0FEF812F902FB9
:102D6000DF91CF911F910F91089582FF14C02E81A2
:102D70003F818C819D81281739073CF4E881F981D6
:102D8000CF0101969983888310838E819F8101965C
:102D90009F838E83E3CFE885F985812F0995892B61
:102DA000A1F3DACFFA01AA27283051F1203181F1BD
:102DB000E8946F936E7F6E5F7F4F8F4F9F4FAF4F43
:102DC000B1E03ED0B4E03CD0670F781F891F9A1F56
:102DD000A11D680F791F8A1F911DA11D6A0F711D0A
:102DE000811D911DA11D20D009F468943F912AE016
:102DF000269F11243019305D3193DEF6CF010895FE
:102E0000462F4770405D4193B3E00FD0C9F7F6CF2E
:102E1000462F4F70405D4A3318F0495D31FD4052F6
:102E2000419302D0A9F7EACFB4E0A695979587958C
:102E300077956795BA95C9F700976105710508956B
:102E40009B01AC010A2E0694579547953795279517
:102E5000BA95C9F7620F731F841F951FA01D0895AF
:102E6000C0000400C000201B5B306D1B5B324A1B9E
:102E70005B3B48000A467265654D454D3A25642026
:102E8000286279746573290A0A006E756C6C70008B
:102E90006D61696E002F6465762F004F4B0A00301C
:102EA00031323334353637383941424344454600B0
:102EB0000D0A444542554720726177543D00207207
:102EC0006177483D000D0A0044454255472074652E
:0A2ED0006D703D002068756D3D0037
:00000001FF
