:10000000ECC0000008C1000006C1000004C10000EF
:1000100002C1000000C10000FEC00000FCC00000E2
:10002000FAC00000F8C00000F6C00000F4C00000F4
:10003000F2C00000F0C0000088C10000ECC0000069
:10004000EAC00000E8C000000C942F0EE4C00000DD
:10005000E2C00000E0C00000DEC00000DCC0000024
:100060000C948B0ED8C000000C94ED000C940B0186
:100070000C940B010C940B010C940B010C940B01D0
:100080000C940B010C940B010C940B010C940B01C0
:100090000C940B010C940B010C940B010C940B01B0
:1000A0000C94A5010C940B010C940B010C940B0106
:1000B0000C942F0E0C940B010C940B010C940B015F
:1000C0000C940B010C940B010C948B0E0C940B01F3
:1000D0000000000000000000434F4E534F4C45000D
:1000E00000007F077F077F077F077F077D077F0768
:1000F0007F077D0700007D07000100000001000070
:10010000004E554C4C4445560000007F077F077F4A
:10011000077F077F077D077F077F077D0700007D3B
:10012000070002000000000000004E414D45535002
:1001300041434500170CBF0D7D077D077D077D07F7
:100140007D077D077D0700007D07006E616D696E8C
:100150006974202864657669636573293A0D0A001D
:100160004552524F522047455453544B2025730A51
:10017000006E616D6573706163653A2064657669D0
:100180006365206E616D6520257320746F6F206C30
:100190006F6E670D0A006E616D6573706163653A1D
:1001A0002063616E6E6F74206D6F756E74202564B0
:1001B0000D0A000A0A416C6C20757365722070721A
:1001C0006F636573736573206861766520636F6D17
:1001D000706C657465642E0A0A0011241FBECFEF8F
:1001E000D8E0DEBFCDBF11E0A0E0B1E0E6E7F5E288
:1001F00002C005900D92A038B107D9F724E0A0E81D
:10020000B1E001C01D92AE35B207E1F70C94D40500
:100210000E94E40DDAC2F4CEFF93EF93FC0100825A
:100220000FB6F89404A2118222823382448255824E
:100230006682778280869186A286B386C486D586BA
:10024000E686F786008B118B228B338B448B558B84
:10025000668B778B808F918FA28FB38FC48FD58F52
:100260000F90068E0F90078E0DB600A20EB601A25B
:10027000FB0100A00DBE01A00EBE078C0F92068CE4
:100280000F92D58DC48DB38DA28D918D808D778980
:100290006689558944893389228911890089F784BF
:1002A000E684D584C484B384A284918480847780D6
:1002B00066805580448033802280118004A00FBE68
:1002C0000080EF91FF910895A4E0B0E0EAE6F1E04C
:1002D0000C94C00F19821A821B821C8219821A8206
:1002E0001B821C8209811A812B813C81061717070A
:1002F0002807390770F4000009811A812B813C819D
:100300000F5F1F4F2F4F3F4F09831A832B833C836F
:10031000E9CF2496E4E00C94DC0F80E284B92D9AB6
:1003200060E47DE083E090E0CFDF2D9860E47DE045
:1003300083E090E0C9CF1092F3011092F401109283
:10034000F5011092F60181E008951F920F920FB609
:100350000F9211242F933F934F935F936F937F934B
:100360008F939F93AF93BF93EF93FF938091FD0182
:100370009091FE01A091FF01B09100020196A11D94
:10038000B11D8093FD019093FE01A093FF01B093F6
:100390000002883E9340A105B105D8F0809101028A
:1003A00090910202A0910302B09104020196A11D56
:1003B000B11D8093010290930202A0930302B093B7
:1003C00004021092FD011092FE011092FF011092A2
:1003D00000028091F7019091F80126E0289FF0013A
:1003E000299FF00D1124E156FC4F828193818430C6
:1003F000910584F4289FF001299FF00D1124E15606
:10040000FC4F80819181019791838083892B11F426
:100410000E942B0B8091F9019091FA01A091FB01B0
:10042000B091FC010197A109B10949F08093F9014C
:100430009093FA01A093FB01B093FC010DC081E001
:1004400090E0A0E0B0E08093F9019093FA01A093CE
:10045000FB01B093FC011AD7FF91EF91BF91AF91CF
:100460009F918F917F916F915F914F913F912F91CC
:100470000F900FBE0F901F9018954AD69093F801D9
:100480008093F70181E090E0A0E0B0E08093F90173
:100490009093FA01A093FB01B093FC01109201022A
:1004A0001092020210920302109204021092FD01B7
:1004B0001092FE011092FF011092000285B5836038
:1004C00085BD84B5826084BD89EF87BDEEE6F0E02E
:1004D0008081826080830895CF92DF92EF92FF92B5
:1004E000CF93DF936B017C0100D5D82F83E0C81632
:1004F000D104E104F10420F08D2FFAD4CFEF11C024
:1005000029E22C9DC0012D9D900D112480539F4FF9
:10051000FC0176960590F491E02D0995C82F8D2F5A
:10052000E7D48C2FDF91CF91FF90EF90DF90CF90A9
:100530000895A6E0B0E0EFE9F2E00C94B20F2B8D45
:1005400029838C8CED8CFE8C09A13AA13E83CDD4FD
:10055000982E40E4E416F1041CF470E4E72EF12C2C
:1005600083E0E80EF11C9CEFE92227010F2C000C20
:1005700066087708C301B20169D21C01019679F4BB
:1005800080E691E00E94640B892DB2D4FFEFFA83DC
:100590002FEF2B833FEF3C834FEF4D8309C1309109
:1005A0008001209181018091820190918301A12C91
:1005B000B12C1BE5632F722F24E030E040E050E0C7
:1005C0000E94960F6B017C016A83DB82EC82FD82C4
:1005D000169FF001179FF00D1124E75FFD4F8081FA
:1005E0009181B701A6014F5F5F4F6F4F7F4F892BFE
:1005F00079F440938001509381016093820170935C
:1006000083018FEFC816D806E806F806A1F4B8CF24
:10061000342F252FCB01EFEFAE1ABE0AF4E0AF1650
:10062000B10441F6409380015093810160938201AF
:1006300090938301A5CF2F8D38A1121613060CF0CD
:100640009FCF8091750390917603A0917703B0912D
:1006500078030196A11DB11D8093750390937603D5
:10066000A0937703B093780385E090E09183808333
:100670003383228331AE20AE42AE53AE64AE75AE4C
:10068000DF01AB5BBF4F1C92A02FBE818F0180E0CA
:1006900090E02D91F801E80FF91F26AF222321F0F9
:1006A000019687309105A9F72BE52C9DC0012D9D62
:1006B000900D1124FC01E75FFD4F5F01EA5BFF4FE6
:1006C0008FEF9FEF91838083B8D1F501E85BFF4FF7
:1006D000608371838283938338961082319611826E
:1006E00010823296118210823296118210828AEA2A
:1006F000F10180838BA19CA1F50193A782A720E043
:1007000030E0F801E20FF31F14822F5F3F4F2632D3
:100710003105B9F72BE52C9DF0012D9DF00D11242D
:10072000E75FFD4F298124AB85AA26A387A220E895
:1007300020A7DE01959620E030E02817390764F401
:100740004D915D91F901EE0FFF1FE00FF11F55A7CD
:1007500044A72F5F3F4FF1CFFC017696EE0FFF1FAE
:100760004BE54C9D90014D9D300D1124E20FF31F80
:10077000E75FFD4F11821082F901E75FFD4F848F23
:10078000958F2B5C3D4F228F338F89E29BE0D10107
:1007900011978C9311979C93119739813C931197E2
:1007A0008C9245E0241A310824A235A2892DA0D3C9
:1007B0006A817B818C819D812696E2E10C94CE0F2B
:1007C00061E070E080E090E0089537D19AC3A0E046
:1007D000B0E0EDEEF3E00C94B80FEC016A017B01A0
:1007E00084D3C114D104E104F10409F447C0209179
:1007F0009B0330919C03C217D30708F43FC020919C
:100800009D0330919E032C173D07C0F197E0C90E60
:10081000D11CE11CF11C98EFC922A601DD0C660B6E
:10082000770BE0919503F0919603A5E9B3E030973B
:1008300041F0EC17FD0740F5DF010190F081E02D5C
:10084000F6CF93E0A539B907D1F11296CD90DD909E
:10085000ED90FC9015978D010B2E000C220B330BA5
:100860000C0D1D1D2E1D3F1D6E010D2E000CEE08E2
:10087000FF08C016D106E206F30618F439D38FEF4D
:1008800082C0309741F41EC093E0A539B907E9F65C
:1008900000E010E098016E010D2E000CEE08FF083C
:1008A000C40ED51EE61EF71E4F010F2E000CAA081F
:1008B000BB088C149D04AE04BF0420F4DFCF00E01D
:1008C00010E09801C0909703D0909803E0909903AE
:1008D000F0909A03C40ED51EE61EF71EC092970331
:1008E000D0929803E0929903F0929A036E010D2E34
:1008F000000CEE08FF08C016D106E206F30691F4DC
:1009000012960D911D912D913C911597400F511FFD
:10091000621F731F12964D935D936D937C93159791
:10092000ED0108C0F983E8834A835B836C837D8390
:10093000CD93DC934A815B816C817D818E010D2E8C
:10094000000C220B330B040F151F261F371F6F01DE
:100950000F2E000CEE08FF080C151D052E053F0597
:1009600081F40281138124813581400F511F621F60
:10097000731F4A835B836C837D832081318139833C
:100980002883B6D281E0CDB7DEB7ECE00C94D40F6B
:1009900026E0AC01249FC001259F900D1124FC018D
:1009A000E156FC4F42815381443051051CF5BA0198
:1009B000052E000C880B990B249FF001259FF00D4C
:1009C0001124E156FC4FA281B38144815581249FBB
:1009D000F001259FF00D1124E156FC4FB383A28353
:1009E0002A9FF0012B9FF00D1124E156FC4F5583F7
:1009F000448308956FEF7FEFCB01089546E0469F53
:100A0000F001479FF00D1124E156FC4FA281B38104
:100A100024813581429FF001439FF00D1124E1565E
:100A2000FC4FB383A2834A9FF0014B9FF00D11242A
:100A3000E156FC4F3583248308956091050270913F
:100A4000060280910702909108020895A0E0B0E0AC
:100A5000ECE2F5E00C94BC0F6B017C0146D2C114B2
:100A6000D104E104F10449F197E0C90ED11CE11C65
:100A7000F11C98EFC9220D2C000CEE08FF08E09144
:100A80009503F0919603A0E0B0E0C0E0D0E025E946
:100A900033E0309781F042815381648175814C1538
:100AA0005D056E057F0510F0D901EF019F010190F2
:100AB000F081E02DEECF209721F41AD28FEF9FEF37
:100AC00041C00A811B812C813D81C016D106E206FE
:100AD000F30629F4288139812D933C9311C00C1918
:100AE0001D092E093F090A831B832C833D83AE0118
:100AF000DD0F660B770B040F151F261F371FE8014C
:100B000040919703509198036091990370919A03D3
:100B10004C195D096E097F09409397035093980320
:100B20006093990370939A03E3D1D701C6010497A8
:100B3000A109B109AE01DD0F660B770B840F951F7C
:100B4000A61FB71FCDB7DEB7E8E00C94D80FCF9241
:100B5000DF92EF92FF92CF93DF936B017C01C5D1BF
:100B6000D82F83E0C816D104E104F10420F08D2FC2
:100B7000BFD1CFEF11C029E22C9DC0012D9D900D5A
:100B8000112480539F4FFC0172960590F491E02D43
:100B90000995C82F8D2FACD18C2FDF91CF91FF906D
:100BA000EF90DF90CF9008951ED37AD21092750304
:100BB000109276031092770310927803109201043A
:100BC000109202041092030410920404E9E0F2E08F
:100BD0001182108216AE11AE10AE13821282E55A47
:100BE000FF4F83E0E537F80799F7C9E7D3E005E958
:100BF00013E0188219821A821B821C8289D29E837A
:100C00008D8327960C171D07A1F795DB81D2909352
:100C100000048093FF0360E070E0CB0198DF61E0A7
:100C200070E080E090E093DF62E070E080E090E0D0
:100C30008EDF23DCE0919503F0919603309721F04D
:100C40000190F081E02DFACF1F921F921F921F9208
:100C500084E091E09F938F931F928AE08F931F927D
:100C600080E48F931F921F9264DC2BE5269FF00196
:100C7000279FF00D1124E75FFD4F81E090E0918305
:100C8000808338D11F921F921F921F928AE091E0B9
:100C90009F938F931F9284E18F9381E08F931F9294
:100CA00084EE9DE09F938F9344DCC1D38DB79EB7B4
:100CB00048960FB6F8949EBF0FBE8DBFFFCF1F930F
:100CC000CF93DF93FA0134973B9708F054C0643018
:100CD00071058105910508F04EC03BE5369FF00196
:100CE000379FF00D1124E75FFD4F0190F081E02D5B
:100CF000EF2B09F440C036E0349FF001359FF00D32
:100D00001124E156FC4F42815381022E000C330B1B
:100D1000C6E016E0C49FF001C59FF00D1124E15616
:100D2000FC4FA081B181A217B30718F04281538113
:100D3000F0CFC481D581169FD001179FB00D11242B
:100D4000A156BC4F13965C934E9312971596DC9365
:100D5000CE9314972D933C931C9FD0011D9FB00DF3
:100D60001124A156BC4F13967C936E9312977583F2
:100D7000648381E001C08FEFDF91CF911F910895CF
:100D80004F925F926F927F928F929F92AF92BF929B
:100D9000CF92DF92EF92FF92CF93DF9300D000D0FB
:100DA000CDB7DEB76B017C01CA0104970B9708F041
:100DB00088C084E0C816D104E104F10408F081C0C1
:100DC0008BE58C9DF0018D9DF00D1124E75FFD4FAB
:100DD00080819181892B09F474C04A01052E000C91
:100DE000AA08BB0886E0849FF001859FF00D1124BE
:100DF000E156FC4F82819381092E000CAA0BBB0B9C
:100E00004F5F5F4F2A01550F6608770849825A8263
:100E10006B827C8266E049805A806B807C8084157E
:100E20009505A605B70569F566E06C9DF0016D9D19
:100E3000F00D1124E156FC4F538242829582848248
:100E400031832083689DA001699D500D1124FA0112
:100E5000E156FC4FD382C282649DF001659DF00D86
:100E60001124E156FC4FD582C48284159505A60550
:100E7000B70529F180819181821B930B9183808337
:100E80001EC0689FF001699FF00D1124E156FC4FD0
:100E9000408151812417350758F0241B350B4281BE
:100EA00053814C015D01CA01550FAA0BBB0BB3CF97
:100EB0002C013D0189819A81AB81BC81B5CF81E054
:100EC00001C08FEF0F900F900F900F90DF91CF9197
:100ED000FF90EF90DF90CF90BF90AF909F908F905A
:100EE0007F906F905F904F9008958FB7F89408951A
:100EF0008FBF089578940895FFCF8FEF089581E014
:100F00000895AF92BF92CF92DF92EF92FF921F931C
:100F1000CF93DF936B017C01E8DF182F84E0C816C4
:100F2000D104E104F10488F48BE58C9DF0018D9DE2
:100F3000F00D1124E75FFD4F80819181892B29F00D
:100F4000C114D104E104F10421F4812FD1DF8FEF2A
:100F50009DC08091750390917603A0917703B09125
:100F600078030197A109B1098093750390937603E3
:100F7000A0937703B09378030297A105B1050CF411
:100F800096D38BE58C9D50018D9DB00C1124F501FD
:100F9000EF5AFD4F6081718182819381A701960193
:100FA0007BD2C0E0D0E0FE01EA0DFB1DE65AFD4F0A
:100FB00060817181072E000C880B990B8DDA2296C7
:100FC000C630D10581F78BE58C9DE0018D9DD00D5C
:100FD0001124C75FDD4F4AAD5BAD6CAD7DAD495FA0
:100FE0005F4F6F4F7F4F487F052E000C660B770BCE
:100FF00088AD99AD092E000CAA0BBB0B0496A11D60
:10100000B11D841B950BA60BB70BE1DB8881998181
:101010008430910581F030F48130910549F00297D8
:1010200029F127C08630910551F0079721F021C0A2
:10103000198218822BD1C701B601BDD21AC0CA5B72
:10104000DF4F8881998127E0289FF001299FF00DCB
:101050001124E758FC4F81819281A381B4810196CC
:10106000A11DB11D81839283A383B483C701B601FF
:10107000C5DC8BE58C9DF0018D9DF00D1124E75FA3
:10108000FD4F11821082812F33DF81E0DF91CF91FC
:101090001F91FF90EF90DF90CF90BF90AF90089599
:1010A0000F931F93CF93DF938EE594E0A0E8BB27C7
:1010B0000196A11DB11DEC0190939C0380939B03AD
:1010C000AC0148515C4F50939E0340939D03E5E96A
:1010D000F3E09183808319821882052E000C660B41
:1010E000770B092E000CAA0BBB0B8A019B01081B76
:1010F000190B2A0B3B0B0A831B832C833D83028332
:10110000138324833583DF91CF911F910F9108952D
:1011100020910001309101012031310544F5C901D0
:1011200002969093010180930001A9014F5F5F4FE8
:1011300066E0629FF001639FF00D1124E156FC4FC1
:10114000538342838FEF9FEF9583848391838083C2
:10115000649FF001659FF00D1124E156FC4F9383CD
:1011600082833583248311821082C90108958FEF11
:101170009FEF08958F929F92AF92BF92EF92FF924E
:101180000F931F93CF93DF934B015C018A01790189
:10119000ACDED82F83E088169104A104B10420F0BE
:1011A0008D2FA6DECFEF13C029E2289DC001299D17
:1011B000900D112480539F4FFC0174960590F4917B
:1011C000E02DA701B8010995C82F8D2F91DE8C2F36
:1011D000DF91CF911F910F91FF90EF90BF90AF9053
:1011E0009F908F900895F89498D897D8E9CACF9394
:1011F0009C01245031092B303105F8F4C6E0C89F1A
:10120000F001C99FF00D1124E156FC4F228133817A
:101210002430310594F4BCDBC69FF001C79FF00D6C
:101220001124E156FC4F2FEF3FEF358324833383A6
:101230002283462F372F282F04C04FEF3FEF2FEF89
:101240009FEF642F732F822FCF9108956430710523
:1012500081059105C8F42BE5269FF001279FF00D2D
:101260001124E75FFD4F20813181232B69F022E0BB
:1012700030E0318320834091FF03509100042281AC
:101280001EDD04D081E008958FEF0895CF92DF92A4
:10129000EF92FF928091010490910204A0910304C7
:1012A000B0910404181619061A061B0624F481E0EE
:1012B000809305046BC0C0900502D0900602E090B8
:1012C0000702F09008028BE58C9DF0018D9DF00DDA
:1012D0001124E75FFD4F80819181019729F52281DB
:1012E00033814091FF035091000486E0849FD00138
:1012F000859FB00D1124A156BC4F12966D917C9123
:101300001397869FD001879FB00D1124A156BC4F23
:101310008D919C9182179307C8F182E090E09183B0
:101320008083C701B601CBDC8091FF03909100045C
:101330005EDF60930502709306028093070290932C
:1013400008022BE5269FD001279FB00D1124FD0137
:10135000E75FFD4F41E050E05183408341E050E0C2
:1013600060E070E04093F9015093FA016093FB0153
:101370007093FC01BD01635F7D4F2C9DC0012D9DCD
:10138000900D1124835F9D4F0E940C01FF90EF9000
:10139000DF90CF900895613071058105910531F09E
:1013A0006230710581059105F1F03FC08091010423
:1013B00090910204A0910304B0910404AC01BD011A
:1013C0004F5F5F4F6F4F7F4F409301045093020474
:1013D0006093030470930404892B8A2B8B2B19F5DB
:1013E0001092050420C08091010490910204A09104
:1013F0000304B0910404181619061A061B06ACF46F
:101400000197A109B1098093010490930204A0936C
:101410000304B0930404892B8A2B8B2B21F4809135
:101420000504811133DF81E008958FEF0895CF9295
:10143000DF92EF92FF921F93CF93DF936B017C01BA
:1014400054DD182F84E0C816D104E104F10470F4CF
:101450008BE58C9DF0018D9DF00D1124E75FFD4F14
:1014600080819181009711F0059729F0812F40DD4F
:101470008FEF9FEF09C0D281C381C701B601E6DEBD
:10148000812F36DD8D2F9C2FDF91CF911F91FF9003
:10149000EF90DF90CF9008958F929F92AF92BF927E
:1014A000CF92DF92EF92FF92CF934B015C016901E3
:1014B0007A011BDDC82F84E088169104A104B104D1
:1014C00090F48BE5889DF001899DF00D1124E75F74
:1014D000FD4F80819181009731F0DF01A05BBF4F0C
:1014E0002C91222321F08C2F03DD8FEF16C0E45BBB
:1014F000FF4FC082D182E282F38221E02C938330BD
:10150000910529F0079731F4C501B40154D0C50104
:10151000B4019CDE8C2FECDC81E0CF91FF90EF904A
:10152000DF90CF90BF90AF909F908F900895CF9213
:10153000DF92EF92FF92CF93DF9397FD33C06B0161
:101540007C01672B682B692B11F4B5D029C0CDDC49
:10155000D82F4091F7015091F801609105027091E8
:1015600006028091070290910802960109DCC82FBB
:101570008F3F19F48D2FBCDC16C08091050290912D
:1015800006022BE5289FF001299FF00D1124E75F4B
:10159000FD4F84E090E09183808378DE8D2FA8DC7E
:1015A000C1E001C0CFEF8C2FDF91CF91FF90EF9082
:1015B000DF90CF900895CF92DF92EF92FF92CF937A
:1015C0006B017C0192DCC82F84E0C816D104E104D1
:1015D000F10488F48BE58C9DF0018D9DF00D1124B4
:1015E000E75FFD4F80819181009729F0843091055C
:1015F00031F0079721F08C2F7BDC8FEF24C026E0A1
:101600002C9DD0012D9DB00D1124A156BC4F1296DA
:101610008D919C911397843091057CF4289FF00163
:10162000299FF00D1124E156FC4F208131818D91CD
:101630009C91820F931F91838083C701B601DED9ED
:101640008C2F56DC81E0CF91FF90EF90DF90CF9010
:101650000895F3D956CCCF9361E070E080E090E03C
:101660009ADEC6E08091F7019091F801C89FF001E1
:10167000C99FF00D1124E156FC4F228133812430A3
:10168000310574F4C29FF001C39FF00D1124E1569F
:10169000FC4F20813181232B19F4A9DDD7DDE2CF66
:1016A00062E070E080E090E076DECF91089583EB19
:1016B00091E00AD021CCCF9318DCC82FE7DD8C2F26
:1016C00017DC81E0CF91089508950F931F9300E0F8
:1016D00010E09801041715072607370764F4DC01AA
:1016E000ED91CD010F5F1F4F2F4F3F4FE111F2CF13
:1016F000B801C90104C06FEF7FEF8FEF9FEF1F911B
:101700000F910895A6E0B0E0E7E8FBE02BC4182FA6
:101710009C831B0169017A01E8DB082F40E150E05E
:1017200060E070E0812F9C81D0DF4B015C0141E0E3
:1017300050E060E070E0C101C8DF2B013C012FEFF9
:1017400082169206A206B20649F16F3F7F4F8F4F75
:101750009F4F21F153E0C516D104E104F104F0F4E8
:101760008091060490910704A0910804B0910904A7
:1017700084309105A105B1058CF419831C811A836D
:1017800025E1289FA001299F500D11245E834D83E0
:1017900020E030E040E050E0BA0104C0802FA8DB38
:1017A0008FEF42C0481559056A057B059CF4E98115
:1017B000FA811191FA83E983ED81FE81E20FF31F33
:1017C000E65FFB4F10834F5F5F4F6F4F7F4F2F5F81
:1017D0003F4FE8CF14141504160417045CF4F1010C
:1017E000208135E1389FF001399FF00D1124E65F2B
:1017F000FB4F208B25E1289FF001299FF00D11243C
:10180000E65FFB4FC18AD28AE38AF48A0196A11D62
:10181000B11D8093060490930704A0930804B0932D
:101820000904802F65DB81E02696E2E1B7C3A0E2E0
:10183000B0E0ECE1FCE09AC386E0EFE0F1E0DE012D
:101840005B9601900D928A95E1F710920604109232
:10185000070410920804109209048BE491E034DF2D
:1018600080EDA82E80E0B82E88E090E09C01205DFD
:1018700030404901DE015B968E010F5F1F4FC12C86
:10188000D12C760138018D91F8018193882339F0AC
:101890003FEFC31AD30AE30AF30A8F01F4CFB4016E
:1018A0006A0D7B1D60537F4F4AE050E0CE014196A8
:1018B000B2D3FE017196BFEFCB1ADB0AEB0AFB0A2B
:1018C00020E1C216D104E104F10464F481919FEB9C
:1018D000980F9A3108F4805ED8018D938D018111A3
:1018E000EACF09C030E1C316D104E104F10419F0D4
:1018F00081E791E00DC0F501259135914591559114
:1019000064E171E0C301FEDE8F3F19F486E991E0E6
:10191000DBDEF9E2AF0EB11C2BE4A21621E0B20629
:1019200009F0A8CF2FEF3FEFA90164E171E08FE04C
:1019300091E0E8DE81E0A096EEE034C34F925F9242
:101940006F927F928F929F92AF92BF92DF92EF92AF
:10195000FF920F931F93CF93DF9300D000D01F927D
:10196000CDB7DEB7E0900604F090070400910804BC
:1019700010910904E982FA820B831C832AE034E087
:10198000812C912C5401E980FA800B811C818E14EA
:101990009F04A006B106ACF47C01F901412C512C46
:1019A0003201D70141914423C1F00FEFE01AF00A50
:1019B0005C9145130AC01FEF411A510A610A710A6E
:1019C000F0CF6FEF7FEFCB0165C00FEF801A900A69
:1019D000A00AB00A2B5E3F4FD6CF7D83D62E40E1C2
:1019E00050E060E070E071DE698385E1889D8001F0
:1019F000899D100D1124065E1B4F40E150E060E010
:101A000070E0C80162DEA9812A2FAA0F330B440BB4
:101A1000550B24193509460957092B013C01B1E042
:101A20004B1A510861087108420E531E641E751E40
:101A3000E1E14E165104610471041CF62B013C01D6
:101A4000D801ED2DFD8181E0481A51086108710827
:101A500014141504160417041CF48D918193F3CF0C
:101A600012161306140615064CF4D7018D917D014C
:101A700081932150310941095109F2CF85E1889DB7
:101A8000F001899DF00D1124E65FFB4F6189728999
:101A9000838994890F900F900F900F900F90DF9192
:101AA000CF911F910F91FF90EF90DF90BF90AF907B
:101AB0009F908F907F906F905F904F900895CF92FE
:101AC000DF92EF92FF92FB01C12CD12C7601C2165E
:101AD000D306E406F50664F46191DC016D93CD0153
:101AE000662341F0BFEFCB1ADB0AEB0AFB0AEFCF0C
:101AF0008FEF01C081E0FF90EF90DF90CF900895CD
:101B0000A0E1B0E0E5E8FDE033C28B0149015A01F4
:101B100020E130E040E050E0BC01CE010196CFDF93
:101B20008F3FF1F0C12CD12C76010DC020E130E0C7
:101B300040E050E0B801CE010196C1DF8FEFC81A36
:101B4000D80AE80AF80A8091060490910704A09147
:101B50000804B0910904C816D906EA06FB0614F079
:101B60008FEF0AC0B801CE010196E8DE681579054D
:101B70008A059B05D9F2862F6096ECE015C2A0E19C
:101B8000B0E0E4ECFDE0FCC1FC01CB018A01259151
:101B9000359145915591BE016F5F7F4FB1DF682F41
:101BA000880F770B880B990B6F3F2FEF7207820717
:101BB000920731F09801AE014F5F5F4FDBDA01C051
:101BC0008FEF6096E4E0F8C10ED060ED77E080E042
:101BD00090E0ADDC62D10BD1EC0161E4CE011FD10C
:101BE000ECD0682FFBCFE0910201F0910301158248
:101BF00087E6848388E9818386E0828378940895E8
:101C0000E0910201F0910301908195FFFDCF868361
:101C1000089590918401809185019817D1F3E09106
:101C20008401F0E0EA57FE4F80812091840130E08A
:101C30002F5F3F4F2F713327209384010895CF9357
:101C4000DF93EC018991882311F0DADFFBCFDF917C
:101C5000CF910895F4DF8DE0D3DF8AE0D1CF1F92DA
:101C60000F920FB60F9211242F933F938F939F9350
:101C7000EF93FF93E0910201F0910301268180919F
:101C8000850190E001968F71992730918401381772
:101C900041F0E0918501F0E0EA57FE4F2083809308
:101CA0008501FF91EF919F918F913F912F910F901F
:101CB0000FBE0F901F901895A6EAB1E09196EC9197
:101CC000919781E08E0F91968C938091BB00F0E00C
:101CD000EA55FE4F808308952091C70130E080913E
:101CE000C60190E001972817390714F485EC01C06C
:101CF00085E88093BC0008958091A6018695109296
:101D0000CA01E091C801F091C901309719F067EA62
:101D100071E0099508951F920F920FB60F9211244A
:101D20002F933F934F935F936F937F938F939F93E3
:101D3000AF93BF93EF93FF938091B900887F883270
:101D400079F038F4803161F0883151F0883001F554
:101D500007C08035C9F08835D1F08034C9F415C08A
:101D6000E091C7018091C601E81790F481E08E0FE1
:101D70008093C701F0E0EA55FE4F80818093BB005D
:101D800085E88093BC0008C097DFA6DF05C094DF1C
:101D900084E98093BC00B0DFFF91EF91BF91AF91D8
:101DA0009F918F917F916F915F914F913F912F9173
:101DB0000F900FBE0F901F901895CF93DF9329DFE0
:101DC000C93419F0CD2FD82FFACFD035D9F78434B4
:101DD00061F41FDF1EDF1DDF1CDF1BDF1ADF082E93
:101DE000000C990BDF91CF910895C0E5ECCFCF9314
:101DF000DF930FDFD82F0DDFC82F0BDFD93411F0A1
:101E0000DC2FFACFC035E1F78434D1F702DF01DFF0
:101E1000082E000C990BC097DF91CF910895A0E692
:101E2000B0E0E4E1FFE0ABC0F62E9E012F5A3F4F39
:101E300040E1E5E1F1E0D90101900D924A95E1F729
:101E40009F938F933F932F938E010F5F1F4F1F938D
:101E50000F93F0D0C801FEDE0F900F900F900F90FF
:101E60000F900F9088E592E020E931E0F901319779
:101E7000F1F70197D9F78F2D0F2C000C990BC0DECD
:101E800080E991E020E931E0F9013197F1F701971C
:101E9000D9F7C05ADF4FE5E08EC085E291E0DADE87
:101EA00080EA9FE020E931E0F9013197F1F70197ED
:101EB000D9F788E291E0CEDE80E395E720E931E0D2
:101EC000F9013197F1F70197D9F78FE291E0C2DE7E
:101ED00080EA9FE020E931E0F9013197F1F70197BD
:101EE000D9F78BE391E0B6DE80E197E220E931E0BB
:101EF000F9013197F1F70197D9F782E691E0AADE6F
:101F000080EA9FE020E931E0F9013197F1F701978C
:101F1000D9F78EE691E09EDE80EA9FE020E931E08D
:101F2000F9013197F1F70197D9F70895052E97FB3D
:101F300016F400940FD057FD05D04BD007FC02D00B
:101F400046F408C050954095309521953F4F4F4F2E
:101F50005F4F089590958095709561957F4F8F4F55
:101F60009F4F08952F923F924F925F926F927F9270
:101F70008F929F92AF92BF92CF92DF92EF92FF9299
:101F80000F931F93CF93DF93CDB7DEB7CA1BDB0B45
:101F90000FB6F894DEBF0FBECDBF09942A883988EA
:101FA00048885F846E847D848C849B84AA84B984F1
:101FB000C884DF80EE80FD800C811B81AA81B981FD
:101FC000CE0FD11D0FB6F894DEBF0FBECDBFED0111
:101FD0000895A1E21A2EAA1BBB1BFD010DC0AA1F6A
:101FE000BB1FEE1FFF1FA217B307E407F50720F082
:101FF000A21BB30BE40BF50B661F771F881F991FFD
:102000001A9469F760957095809590959B01AC0145
:10201000BD01CF010895FB01DC014150504048F063
:1020200005900D920020C9F701C01D92415050400B
:10203000E0F70895AEE0B0E0EFE1F0E1A1CF0D8967
:102040001E8986E08C831A8309838FEF9FE79E8326
:102050008D83AE01475E5F4F6F89788DCE0101960B
:1020600008D0EF81F885E00FF11F10822E96E4E092
:10207000A3CFABE0B0E0EEE3F0E174CF6C017B0105
:102080008A01FC0117821682838181FFBFC1CE01C4
:1020900001963C01F6019381F70193FD859193FF31
:1020A00081917F01882309F4ADC1853239F493FD14
:1020B000859193FF81917F01853221F4B60190E0F3
:1020C000C0D1E8CF912C212C312CFFE1F315D8F0B1
:1020D0008B3279F038F4803279F08332A1F4232DF9
:1020E00020611DC08D3261F0803369F4232D2160A1
:1020F00016C0832D8260382EE32DE4603E2E2AC068
:10210000F32DF8601DC037FC2DC020ED280F2A30BC
:1021100040F08E32B9F436FC75C1232D2064322E86
:1021200019C036FE06C08AE0989E200D1124922E1A
:1021300011C0EAE02E9E200D1124222EF32DF06214
:102140003F2E08C08C3621F4832D8068382E02C0C3
:10215000883641F4F70193FD859193FF81917F01CA
:102160008111B3CF982F9F7D9554933028F40C5F45
:102170001F4F9FE399830DC0833631F0833771F091
:10218000833509F055C020C0F801808189830E5F36
:102190001F4F88248394912C530112C02801F2E030
:1021A0004F0E511CF801A080B18036FE03C0692D8E
:1021B00070E002C06FEF7FEFC50138D14C018201A2
:1021C000F32DFF773F2E15C0280122E0420E511C4F
:1021D000F801A080B18036FE03C0692D70E002C016
:1021E0006FEF7FEFC50117D14C01F32DF0683F2E43
:1021F000820133FC19C0822D90E088169906A0F464
:10220000B60180E290E01DD12A94F5CFF50137FCAC
:10221000859137FE81915F01B60190E012D12110C6
:102220002A9421E0821A91088114910479F7E1C07F
:10223000843611F0893639F5F80137FE07C0608120
:102240007181828193810C5F1F4F08C06081718111
:10225000072E000C880B990B0E5F1F4FF32DFF7696
:102260003F2E97FF09C090958095709561957F4F9F
:102270008F4F9F4FF0683F2E2AE030E0A3011DD121
:10228000882E861844C0853731F4232D2F7EB22E38
:102290002AE030E025C0932D997FB92E8F36C1F00A
:1022A00018F4883579F0AEC0803719F0883721F0FE
:1022B000A9C0E92FE061BE2EB4FE0DC0FB2DF46075
:1022C000BF2E09C034FE0AC0292F2660B22E06C0D8
:1022D00028E030E005C020E130E002C020E132E03B
:1022E000F801B7FE07C060817181828193810C5F24
:1022F0001F4F06C06081718180E090E00E5F1F4F2C
:10230000A301DBD0882E8618FB2DFF773F2E36FEEB
:102310000DC0232D2E7FA22E891458F434FE0BC03D
:1023200032FC09C0832D8E7EA82E05C0B82CA32CAC
:1023300003C0B82C01C0B92CA4FE0FC0FE01E80DEB
:10234000F11D8081803321F49A2D997EA92E09C038
:10235000A2FE06C0B394B39404C08A2D867809F017
:10236000B394A3FC10C0A0FE06C0B21480F4280CE5
:10237000922C9B180DC0B21458F4B60180E290E084
:1023800060D0B394F8CFB21418F42B1802C0982C74
:10239000212CA4FE0FC0B60180E390E052D0A2FE33
:1023A00016C0A1FC03C088E790E002C088E590E079
:1023B000B6010CC08A2D867851F0A1FE02C08BE2D6
:1023C00001C080E2A7FC8DE2B60190E03AD089140A
:1023D00030F4B60180E390E034D09A94F8CF8A9438
:1023E000F301E80DF11D8081B60190E02AD0811043
:1023F000F6CF222009F44ECEB60180E290E021D043
:102400002A94F7CFF6018681978102C08FEF9FEF64
:102410002B96E2E1C3CDFC010590615070400110A4
:10242000D8F7809590958E0F9F1F0895FC016150FD
:10243000704001900110D8F7809590958E0F9F1FE6
:1024400008950F931F93CF93DF93FB01238121FD09
:1024500003C08FEF9FEF2CC022FF16C0468157812B
:10246000248135814217530744F4A081B1819D0135
:102470002F5F3F4F318320838C93268137812F5FDD
:102480003F4F3783268314C08B01EC01FB0100848E
:10249000F185E02D0995892BE1F6D80116968D91ED
:1024A0009C911797019617969C938E931697CE0141
:1024B000DF91CF911F910F910895FA01AA2728303B
:1024C00051F1203181F1E8946F936E7F6E5F7F4F01
:1024D0008F4F9F4FAF4FB1E03ED0B4E03CD0670F7D
:1024E000781F891F9A1FA11D680F791F8A1F911DD0
:1024F000A11D6A0F711D811D911DA11D20D009F420
:1025000068943F912AE0269F11243019305D319361
:10251000DEF6CF010895462F4770405D4193B3E04A
:102520000FD0C9F7F6CF462F4F70405D4A3318F0F1
:10253000495D31FD4052419302D0A9F7EACFB4E0A2
:10254000A6959795879577956795BA95C9F700975A
:102550006105710508959B01AC010A2E06945795FB
:10256000479537952795BA95C9F7620F731F841F52
:06257000951FA01D089557
:102576000400C0006E756C6C70006D61696E002F92
:102586006465762F0041542B43495053454E443DD4
:1025960025692C310041540041542B5253540041BB
:1025A600542B43574D4F44453D330041542B43571D
:1025B6005341503D224156525F776966695F4553E4
:1025C60050222C223132333435363738222C312CF6
:1025D600300041542B4349504D55583D310041542C
:1025E6002B4349505345525645523D312C38300005
:00000001FF
