:100000004AC1000066C1000064C1000062C1000076
:1000100060C100005EC100005CC100005AC1000068
:1000200058C1000056C1000054C1000052C1000078
:1000300050C100004EC100000BC200004AC10000C8
:1000400048C1000046C10000B2C1000042C100002A
:1000500040C100003EC100003CC100003AC10000A8
:100060000C94C21136C100000C944B010C94690130
:100070000C9469010C9469010C9469010C94690158
:100080000C9469010C9469010C9469010C94690148
:100090000C9469010C9469010C9469010C94690138
:1000A0000C9428020C9469010C9469010C94690168
:1000B0000C94D7010C9469010C9469010C946901AA
:1000C0000C9469010C9469010C94C2110C9469019F
:1000D0000000000000000000434F4E534F4C45000D
:1000E0000000200820082008200820081E082008FA
:1000F00020081E0800001E0800010000000100008A
:10010000004E554C4C444556000000200820082065
:1001100008200820081E08200820081E0800001ECD
:10012000080002000000000000004E414D45535001
:10013000414345002C0DD40E1E081E081E081E0843
:100140001E081E081E0800001E08006E616D696E04
:100150006974202864657669636573293A0D0A001D
:100160004552524F522047455453544B2025730A51
:10017000006E616D6573706163653A2064657669D0
:100180006365206E616D6520257320746F6F206C30
:100190006F6E670D0A006E616D6573706163653A1D
:1001A0002063616E6E6F74206D6F756E74202564B0
:1001B0000D0A000A0A416C6C20757365722070721A
:1001C0006F636573736573206861766520636F6D17
:1001D000706C657465642E0A0A000A57656C636F5B
:1001E0006D6520746F2058696E75210A0A0D0958D3
:1001F000696E75204F5320436F7079726967687418
:100200002028632920323031322C20323031350A17
:100210000D09446F75676C617320452E20436F6D27
:10022000657220616E64204352432050726573737F
:100230002C20496E632E0A0A0D0958696E75204FED
:100240005320666F72204156522061746D6567615C
:10025000333238702076302E312028632920323016
:1002600032300A0D0952616661656C2049676E6122
:1002700063696F205A7572697461203C72616661AE
:100280004066692E756E636F6D612E6564752E61B3
:10029000723E0A0A0D0011241FBECFEFD8E0DEBF68
:1002A000CDBF11E0A0E0B1E0EAE7FEE202C00590B8
:1002B0000D92AE39B107D9F724E0AEE9B1E001C043
:1002C0001D92AC37B207E1F70C9457060E94F90E65
:1002D000FFC296CEFF93EF93FC0100820FB6F89415
:1002E00004A21182228233824482558266827782FE
:1002F00080869186A286B386C486D586E686F786F2
:10030000008B118B228B338B448B558B668B778BB9
:10031000808F918FA28FB38FC48FD58F0F90068E51
:100320000F90078E0DB600A20EB601A2FB0100A031
:100330000DBE01A00EBE078C0F92068C0F92D58DBC
:10034000C48DB38DA28D918D808D778966895589F5
:1003500044893389228911890089F784E684D58408
:10036000C484B384A284918480847780668055801D
:10037000448033802280118004A00FBE0080EF9162
:10038000FF910895E0910001F0910101158287E647
:10039000848386E0828388E181830895E09100016F
:1003A000F0910101908195FFFDCF868308951F9202
:1003B0000F920FB60F9211248F938091C6008093F5
:1003C000D0018F910F900FBE0F901F901895A4E051
:1003D000B0E0EDEEF1E00C94561219821A821B8205
:1003E0001C8219821A821B821C8209811A812B812C
:1003F0003C81061717072807390770F400000981A8
:100400001A812B813C810F5F1F4F2F4F3F4F098374
:100410001A832B833C83E9CF2496E4E00C94721278
:1004200080E284B92D9A60E47DE083E090E0CFDF44
:100430002D9860E47DE083E090E0C9CF1092F9014F
:100440001092FA011092FB011092FC0181E00895D4
:100450001F920F920FB60F9211242F933F934F9339
:100460005F936F937F938F939F93AF93BF93EF931C
:10047000FF938091030290910402A0910502B09134
:1004800006020196A11DB11D809303029093040200
:10049000A0930502B0930602883E9340A105B105E2
:1004A000D8F08091070290910802A0910902B091C2
:1004B0000A020196A11DB11D8093070290930802C4
:1004C000A0930902B0930A02109203021092040250
:1004D00010920502109206028091FD019091FE019A
:1004E00026E0289FF001299FF00D1124EB55FC4FC9
:1004F000828193818430910584F4289FF001299FA3
:10050000F00D1124EB55FC4F80819181019791836F
:100510008083892B11F40E940E0C8091FF01909131
:100520000002A0910102B09102020197A109B10954
:1005300049F08093FF0190930002A0930102B093D1
:1005400002020DC081E090E0A0E0B0E08093FF01E6
:1005500090930002A0930102B09302027AD7FF9118
:10056000EF91BF91AF919F918F917F916F915F912B
:100570004F913F912F910F900FBE0F901F901895A4
:10058000A8D69093FE018093FD0181E090E0A0E069
:10059000B0E08093FF0190930002A0930102B0931A
:1005A00002021092070210920802109209021092A1
:1005B0000A02109203021092040210920502109295
:1005C000060285B5836085BD84B5826084BD89EFF0
:1005D00087BDEEE6F0E08081826080830895CF924F
:1005E000DF92EF92FF92CF93DF936B017C011ED5D8
:1005F000D82F83E0C816D104E104F10420F08D2F38
:1006000018D5CFEF11C029E22C9DC0012D9D900D72
:10061000112480539F4FFC0176960590F491E02DB4
:100620000995C82F8D2F05D58C2FDF91CF91FF9085
:10063000EF90DF90CF900895A6E0B0E0E2E2F3E023
:100640000C9448122B8D29838C8CED8CFE8C09A187
:100650003AA13E83EBD4982E40E4E416F1041CF456
:1006600070E4E72EF12C83E0E80EF11C9CEFE92208
:1006700027010F2C000C66087708C301B20169D26C
:100680001C01019679F480E691E00E94470C892DC7
:10069000D0D4FFEFFA832FEF2B833FEF3C834FEF54
:1006A0004D8309C130919E0120919F018091A0014D
:1006B0009091A101A12CB12C1BE5632F722F24E096
:1006C00030E040E050E00E942C126B017C016A8314
:1006D000DB82EC82FD82169FF001179FF00D112442
:1006E000E15FFD4F80819181B701A6014F5F5F4FB0
:1006F0006F4F7F4F892B79F440939E0150939F0158
:100700006093A0017093A1018FEFC816D806E80688
:10071000F806A1F4B8CF342F252FCB01EFEFAE1A96
:10072000BE0AF4E0AF16B10441F640939E01509327
:100730009F016093A0019093A101A5CF2F8D38A1B7
:10074000121613060CF09FCF80917B0390917C03CF
:10075000A0917D03B0917E030196A11DB11D8093F0
:100760007B0390937C03A0937D03B0937E0385E08D
:1007700090E0918380833383228331AE20AE42AEFA
:1007800053AE64AE75AEDF01AB5BBF4F1C92A02FC2
:10079000BE818F0180E090E02D91F801E80FF91FF4
:1007A00026AF222321F0019687309105A9F72BE58A
:1007B0002C9DC0012D9D900D1124FC01E15FFD4F8A
:1007C0005F01EA5BFF4F8FEF9FEF91838083B8D18A
:1007D000F501E85BFF4F60837183828393833896D2
:1007E00010823196118210823296118210823296D6
:1007F000118210828AEAF10180838BA19CA1F5010C
:1008000093A782A720E030E0F801E20FF31F1482E3
:100810002F5F3F4F26323105B9F72BE52C9DF001B4
:100820002D9DF00D1124E15FFD4F298124AB85AA98
:1008300026A387A220E820A7DE01959620E030E0DD
:100840002817390764F44D915D91F901EE0FFF1FF0
:10085000E00FF11F55A744A72F5F3F4FF1CFFC01D9
:100860007696EE0FFF1F4BE54C9D90014D9D300D90
:100870001124E20FF31FE15FFD4F11821082F90195
:10088000E15FFD4F848F958F255C3D4F228F338F25
:100890008CE09CE0D10111978C9311979C93119758
:1008A00039813C9311978C9245E0241A310824A297
:1008B00035A2892DBED36A817B818C819D8126964C
:1008C000E2E10C94641261E070E080E090E0089551
:1008D00037D1B8C3A0E0B0E0E0E7F4E00C944E12EA
:1008E000EC016A017B01A2D3C114D104E104F1043B
:1008F00009F447C02091A1033091A203C217D30786
:1009000008F43FC02091A3033091A4032C173D07A6
:10091000C0F197E0C90ED11CE11CF11C98EFC9226F
:10092000A601DD0C660B770BE0919B03F0919C0315
:10093000ABE9B3E0309741F0EC17FD0740F5DF017C
:100940000190F081E02DF6CF93E0AB39B907D1F1FA
:100950001296CD90DD90ED90FC9015978D010B2EA9
:10096000000C220B330B0C0D1D1D2E1D3F1D6E01A7
:100970000D2E000CEE08FF08C016D106E206F306A5
:1009800018F457D38FEF82C0309741F41EC093E024
:10099000AB39B907E9F600E010E098016E010D2EC1
:1009A000000CEE08FF08C40ED51EE61EF71E4F0110
:1009B0000F2E000CAA08BB088C149D04AE04BF04C3
:1009C00020F4DFCF00E010E09801C0909D03D090AC
:1009D0009E03E0909F03F090A003C40ED51EE61E78
:1009E000F71EC0929D03D0929E03E0929F03F09267
:1009F000A0036E010D2E000CEE08FF08C016D106F4
:100A0000E206F30691F412960D911D912D913C9101
:100A10001597400F511F621F731F12964D935D93E0
:100A20006D937C931597ED0108C0F983E8834A83A1
:100A30005B836C837D83CD93DC934A815B816C8186
:100A40007D818E010D2E000C220B330B040F151F20
:100A5000261F371F6F010F2E000CEE08FF080C1524
:100A60001D052E053F0581F4028113812481358106
:100A7000400F511F621F731F4A835B836C837D830A
:100A80002081318139832883D4D281E0CDB7DEB78C
:100A9000ECE00C946A1226E0AC01249FC001259F73
:100AA000900D1124FC01EB55FC4F428153814430E1
:100AB00051051CF5BA01052E000C880B990B249FDB
:100AC000F001259FF00D1124EB55FC4FA281B3815D
:100AD00044815581249FF001259FF00D1124EB5591
:100AE000FC4FB383A2832A9FF0012B9FF00D1124AA
:100AF000EB55FC4F5583448308956FEF7FEFCB0197
:100B0000089546E0469FF001479FF00D1124EB55F4
:100B1000FC4FA281B38124813581429FF001439F24
:100B2000F00D1124EB55FC4FB383A2834A9FF001D3
:100B30004B9FF00D1124EB55FC4F35832483089512
:100B400060910B0270910C0280910D0290910E0247
:100B50000895A0E0B0E0EFEAF5E00C9452126B01CA
:100B60007C0164D2C114D104E104F10449F197E09D
:100B7000C90ED11CE11CF11C98EFC9220D2C000CF0
:100B8000EE08FF08E0919B03F0919C03A0E0B0E029
:100B9000C0E0D0E02BE933E0309781F0428153810F
:100BA000648175814C155D056E057F0510F0D901D6
:100BB000EF019F010190F081E02DEECF209721F40D
:100BC00038D28FEF9FEF41C00A811B812C813D817C
:100BD000C016D106E206F30629F4288139812D9347
:100BE0003C9311C00C191D092E093F090A831B8370
:100BF0002C833D83AE01DD0F660B770B040F151FB1
:100C0000261F371FE80140919D0350919E0360917C
:100C10009F037091A0034C195D096E097F094093F1
:100C20009D0350939E0360939F037093A00301D292
:100C3000D701C6010497A109B109AE01DD0F660B0A
:100C4000770B840F951FA61FB71FCDB7DEB7E8E05F
:100C50000C946E12CF92DF92EF92FF92CF93DF93BC
:100C60006B017C01E3D1D82F83E0C816D104E104E5
:100C7000F10420F08D2FDDD1CFEF11C029E22C9DA2
:100C8000C0012D9D900D112480539F4FFC01729641
:100C90000590F491E02D0995C82F8D2FCAD18C2F86
:100CA000DF91CF91FF90EF90DF90CF9008957CD3AC
:100CB00086E091E09F938F93A5D28AED91E0E7D5EE
:100CC000D0D210927B0310927C0310927D0310927D
:100CD0007E031092070410920804109209041092E7
:100CE0000A04EFE0F2E00F900F901182108216AE2E
:100CF00011AE10AE13821282E55AFF4F83E0EB373C
:100D0000F80799F7CFE7D3E00BE913E018821982CF
:100D10001A821B821C82DDD29E838D8327960C173C
:100D20001D07A1F78BDBD5D29093060480930504B1
:100D300060E070E0CB018EDF61E070E080E090E089
:100D400089DF62E070E080E090E084DF19DCE09110
:100D50009B03F0919C0380E090E0DC01309761F010
:100D60004281538164817581840F951FA61FB71F2F
:100D70000190F081E02DF2CFBF93AF939F938F93BB
:100D800084E191E09F938F933DD21F921F921F9217
:100D90001F928AE291E09F938F931F928AE08F9334
:100DA0001F9280E48F931F921F9246DC2BE5269FB3
:100DB000F001279FF00D1124E15FFD4F81E090E0ED
:100DC0009183808338D11F921F921F921F9280E3DC
:100DD00091E09F938F931F9284E18F9381E08F9393
:100DE0001F9289EF9EE09F938F9326DC03D48DB7EB
:100DF0009EB74E960FB6F8949EBF0FBE8DBFFFCF25
:100E00001F93CF93DF93FA0134973B9708F054C0B8
:100E1000643071058105910508F04EC03BE5369FB1
:100E2000F001379FF00D1124E15FFD4F0190F0813B
:100E3000E02DEF2B09F440C036E0349FF001359FE0
:100E4000F00D1124EB55FC4F42815381022E000C12
:100E5000330BC6E016E0C49FF001C59FF00D1124CE
:100E6000EB55FC4FA081B181A217B30718F0428166
:100E70005381F0CFC481D581169FD001179FB00D4B
:100E80001124AB55BC4F13965C934E931297159655
:100E9000DC93CE9314972D933C931C9FD0011D9F00
:100EA000B00D1124AB55BC4F13967C936E931297E3
:100EB0007583648381E001C08FEFDF91CF911F9133
:100EC00008954F925F926F927F928F929F92AF920E
:100ED000BF92CF92DF92EF92FF92CF93DF9300D039
:100EE00000D0CDB7DEB76B017C01CA0104970B9728
:100EF00008F088C084E0C816D104E104F10408F0C9
:100F000081C08BE58C9DF0018D9DF00D1124E15F7A
:100F1000FD4F80819181892B09F474C04A01052E0F
:100F2000000CAA08BB0886E0849FF001859FF00DA5
:100F30001124EB55FC4F82819381092E000CAA0BE2
:100F4000BB0B4F5F5F4F2A01550F66087708498238
:100F50005A826B827C8266E049805A806B807C80FA
:100F600084159505A605B70569F566E06C9DF00149
:100F70006D9DF00D1124EB55FC4F538242829582FA
:100F8000848231832083689DA001699D500D1124C6
:100F9000FA01EB55FC4FD382C282649DF001659D3E
:100FA000F00D1124EB55FC4FD582C48284159505B4
:100FB000A605B70529F180819181821B930B91834E
:100FC00080831EC0689FF001699FF00D1124EB55CE
:100FD000FC4F408151812417350758F0241B350BF5
:100FE000428153814C015D01CA01550FAA0BBB0B15
:100FF000B3CF2C013D0189819A81AB81BC81B5CFF2
:1010000081E001C08FEF0F900F900F900F90DF9154
:10101000CF91FF90EF90DF90CF90BF90AF909F90D7
:101020008F907F906F905F904F9008958FB7F89456
:1010300008958FBF089578940895FFCF8FEF089596
:1010400081E00895AF92BF92CF92DF92EF92FF922C
:101050001F93CF93DF936B017C01E8DF182F84E0AF
:10106000C816D104E104F10488F48BE58C9DF001ED
:101070008D9DF00D1124E15FFD4F80819181892BC1
:1010800029F0C114D104E104F10421F4812FD1DF4E
:101090008FEF9DC080917B0390917C03A0917D0395
:1010A000B0917E030197A109B10980937B039093CE
:1010B0007C03A0937D03B0937E030297A105B10545
:1010C0000CF4D8D38BE58C9D50018D9DB00C112470
:1010D000F501E95AFD4F6081718182819381A701F9
:1010E0009601BDD2C0E0D0E0FE01EA0DFB1DE05A42
:1010F000FD4F60817181072E000C880B990B6FDA10
:101100002296C630D10581F78BE58C9DE0018D9D3F
:10111000D00D1124C15FDD4F4AAD5BAD6CAD7DAD2F
:10112000495F5F4F6F4F7F4F487F052E000C660B66
:10113000770B88AD99AD092E000CAA0BBB0B04965A
:10114000A11DB11D841B950BA60BB70BC3DB8881BA
:1011500099818430910581F030F48130910549F016
:10116000029729F127C08630910551F0079721F0A9
:1011700021C0198218826DD1C701B601FFD21AC0F1
:10118000CA5BDF4F8881998127E0289FF001299F62
:10119000F00D1124E158FC4F81819281A381B4812B
:1011A0000196A11DB11D81839283A383B483C701DE
:1011B000B601A7DC8BE58C9DF0018D9DF00D11240F
:1011C000E15FFD4F11821082812F33DF81E0DF91DB
:1011D000CF911F91FF90EF90DF90CF90BF90AF9095
:1011E0000895CF93DF93C82F21DFD82FCA3011F491
:1011F0008DE0D4D88C2FD2D88D2F1BDF81E0DF91EA
:10120000CF910895A1E5B0E0E8E0F9E00C94541224
:101210008E01065A1F4FF801E190F1908F0121E5F0
:1012200030E040E050E060E070E0CE0101960E94C6
:101230008B149801A70160E570E0CE0101960E9431
:1012400092148E010F5F1F4FF80181918F01882347
:1012500011F0C7DFF9CF81E0CF5ADF4FE6E00C9401
:1012600070120F931F93CF93DF938CE794E0A0E865
:10127000BB270196A11DB11DEC019093A2038093A1
:10128000A103AC0148515C4F5093A4034093A303C6
:10129000EBE9F3E09183808319821882052E000C1C
:1012A000660B770B092E000CAA0BBB0B8A019B0166
:1012B000081B190B2A0B3B0B0A831B832C833D83D2
:1012C0000283138324833583DF91CF911F910F9184
:1012D000089520910201309103012031310544F538
:1012E000C90102969093030180930201A9014F5F07
:1012F0005F4F66E0629FF001639FF00D1124EB5594
:10130000FC4F538342838FEF9FEF958384839183B8
:101310008083649FF001659FF00D1124EB55FC4F15
:10132000938382833583248311821082C9010895B7
:101330008FEF9FEF08958F929F92AF92BF92EF929F
:10134000FF920F931F93CF93DF934B015C018A01B0
:1013500079016CDED82F83E088169104A104B104D2
:1013600020F08D2F66DECFEF13C029E2289DC0014B
:10137000299D900D112480539F4FFC017496059078
:10138000F491E02DA701B8010995C82F8D2F51DEEA
:101390008C2FDF91CF911F910F91FF90EF90BF9015
:1013A000AF909F908F900895F8943AD839D80E94C2
:1013B000C20189CACF939C01245031092B303105D9
:1013C000F8F4C6E0C89FF001C99FF00D1124EB5559
:1013D000FC4F228133812430310594F45CDBC69FBD
:1013E000F001C79FF00D1124EB55FC4F2FEF3FEF9D
:1013F0003583248333832283462F372F282F04C03D
:101400004FEF3FEF2FEF9FEF642F732F822FCF917E
:1014100008956430710581059105C8F42BE5269F78
:10142000F001279FF00D1124E15FFD4F20813181F4
:10143000232B69F022E030E03183208340910504C2
:10144000509106042281DCDC04D081E008958FEF06
:101450000895CF92DF92EF92FF92809107049091CE
:101460000804A0910904B0910A04181619061A0676
:101470001B0624F481E080930B046BC0C0900B0228
:10148000D0900C02E0900D02F0900E028BE58C9D46
:10149000F0018D9DF00D1124E15FFD4F8081918160
:1014A000019729F52281338140910504509106046A
:1014B00086E0849FD001859FB00D1124AB55BC4FB1
:1014C00012966D917C911397869FD001879FB00DE6
:1014D0001124AB55BC4F8D919C9182179307C8F195
:1014E00082E090E091838083C701B60189DC80911E
:1014F0000504909106045EDF60930B0270930C026A
:1015000080930D0290930E022BE5269FD001279F1A
:10151000B00D1124FD01E15FFD4F41E050E051832A
:10152000408341E050E060E070E04093FF01509361
:1015300000026093010270930202BD016D5E7D4F57
:101540002C9DC0012D9D900D11248D5E9D4F0E94FC
:101550006A01FF90EF90DF90CF90089561307105A0
:101560008105910531F06230710581059105F1F039
:101570003FC08091070490910804A0910904B091A4
:101580000A04AC01BD014F5F5F4F6F4F7F4F409327
:101590000704509308046093090470930A04892B8C
:1015A0008A2B8B2B19F510920B0420C08091070415
:1015B00090910804A0910904B0910A041816190624
:1015C0001A061B06ACF40197A109B1098093070420
:1015D00090930804A0930904B0930A04892B8A2BE2
:1015E0008B2B21F480910B04811133DF81E008956E
:1015F0008FEF0895CF92DF92EF92FF921F93CF93D8
:10160000DF936B017C0112DD182F84E0C816D10432
:10161000E104F10470F48BE58C9DF0018D9DF00DDB
:101620001124E15FFD4F80819181009711F00597B2
:1016300029F0812FFEDC8FEF9FEF09C0D281C3819B
:10164000C701B601E6DE812FF4DC8D2F9C2FDF91E0
:10165000CF911F91FF90EF90DF90CF9008958F92E0
:101660009F92AF92BF92CF92DF92EF92FF92CF9371
:101670004B015C0169017A01D9DCC82F84E088162E
:101680009104A104B10490F48BE5889DF001899D3B
:10169000F00D1124E15FFD4F80819181009731F0C1
:1016A000DF01A05BBF4F2C91222321F08C2FC1DCE6
:1016B0008FEF16C0E45BFF4FC082D182E282F382DB
:1016C00021E02C938330910529F0079731F4C5016F
:1016D000B40154D0C501B4019CDE8C2FAADC81E09A
:1016E000CF91FF90EF90DF90CF90BF90AF909F9001
:1016F0008F900895CF92DF92EF92FF92CF93DF9376
:1017000097FD33C06B017C01672B682B692B11F4AB
:10171000B5D029C08BDCD82F4091FD015091FE013E
:1017200060910B0270910C0280910D0290910E025B
:101730009601C7DBC82F8F3F19F48D2F7ADC16C0B6
:1017400080910B0290910C022BE5289FF001299FBC
:10175000F00D1124E15FFD4F84E090E091838083E0
:1017600078DE8D2F66DCC1E001C0CFEF8C2FDF91DA
:10177000CF91FF90EF90DF90CF900895CF92DF92BE
:10178000EF92FF92CF936B017C0150DCC82F84E075
:10179000C816D104E104F10488F48BE58C9DF001B6
:1017A0008D9DF00D1124E15FFD4F808191810097A7
:1017B00029F08430910531F0079721F08C2F39DC26
:1017C0008FEF24C026E02C9DD0012D9DB00D11245B
:1017D000AB55BC4F12968D919C9113978430910517
:1017E0007CF4289FF001299FF00D1124EB55FC4F4C
:1017F000208131818D919C91820F931F91838083F1
:10180000C701B6017ED98C2F14DC81E0CF91FF9007
:10181000EF90DF90CF90089593D914CCCF9361E0EF
:1018200070E080E090E09ADEC6E08091FD0190914A
:10183000FE01C89FF001C99FF00D1124EB55FC4F2C
:10184000228133812430310574F4C29FF001C39F9B
:10185000F00D1124EB55FC4F20813181232B19F41D
:10186000A9DDD7DDE2CF62E070E080E090E076DED7
:10187000CF91089583EB91E00AD0DFCBCF93D6DBF5
:10188000C82FE7DD8C2FD5DB81E0CF910895089537
:10189000CF93DF93C82FD62FC9DBEC2FF0E0E45FA6
:1018A000FB4FD083C6DBDF91CF910895CF93DF93B9
:1018B000C82FD0E0C45FDB4FB9DB988119163CF02C
:1018C000B8DB61E070E080E090E014DFF5CF91508C
:1018D0009883AFDBDF91CF910895CF93C82FA6DB1C
:1018E000EC2FF0E0E45FFB4F90819F5F9083A1DBE2
:1018F000CF9108950F931F9300E010E09801041713
:1019000015072607370764F4DC01ED91CD010F5F61
:101910001F4F2F4F3F4FE111F2CFB801C90104C053
:101920006FEF7FEF8FEF9FEF1F910F910895A6E06C
:10193000B0E0ECE9FCE0ACC5182F9C831B01690109
:101940007A0174DB082F40E150E060E070E0812F05
:101950009C81D0DF4B015C0141E050E060E070E031
:10196000C101C8DF2B013C012FEF82169206A206AF
:10197000B20649F16F3F7F4F8F4F9F4F21F153E0E8
:10198000C516D104E104F104F0F4809110049091A3
:101990001104A0911204B091130484309105A105A3
:1019A000B1058CF419831C811A8325E1289FA001BD
:1019B000299F500D11245E834D8320E030E040E0EC
:1019C00050E0BA0104C0802F34DB8FEF42C04815CD
:1019D00059056A057B059CF4E981FA811191FA8326
:1019E000E983ED81FE81E20FF31FEC5EFB4F108374
:1019F0004F5F5F4F6F4F7F4F2F5F3F4FE8CF141404
:101A00001504160417045CF4F101208135E1389FB8
:101A1000F001399FF00D1124EC5EFB4F208B25E186
:101A2000289FF001299FF00D1124EC5EFB4FC18A25
:101A3000D28AE38AF48A0196A11DB11D8093100415
:101A400090931104A0931204B0931304802FF1DA41
:101A500081E02696E2E138C5A0E2B0E0E1E3FDE0F6
:101A60001BC586E0E5E3F1E0DE015B9601900D9297
:101A70008A95E1F71092100410921104109212044A
:101A8000109213048BE491E002DF80EDA82E80E039
:101A9000B82E88E090E09C01205D30404901DE01D5
:101AA0005B968E010F5F1F4FC12CD12C7601380140
:101AB0008D91F8018193882339F03FEFC31AD30A3F
:101AC000E30AF30A8F01F4CFB4016A0D7B1D605362
:101AD0007F4F4AE050E0CE01419605D7FE01719656
:101AE000BFEFCB1ADB0AEB0AFB0A20E1C216D104D6
:101AF000E104F10464F481919FEB980F9A3108F4AA
:101B0000805ED8018D938D018111EACF09C030E14B
:101B1000C316D104E104F10419F081E791E00DC08E
:101B2000F501259135914591559169E271E0C30127
:101B3000FEDE8F3F19F486E991E0A9DEF9E2AF0EEF
:101B4000B11C2BE4A21621E0B20609F0A8CF2FEFBA
:101B50003FEFA90169E271E085E391E0E8DE81E011
:101B6000A096EEE0B5C44F925F926F927F928F92F3
:101B70009F92AF92BF92DF92EF92FF920F931F93CB
:101B8000CF93DF9300D000D01F92CDB7DEB7E090A7
:101B90001004F09011040091120410911304E982D2
:101BA000FA820B831C8324E134E0812C912C5401B4
:101BB000E980FA800B811C818E149F04A006B10677
:101BC000ACF47C01F901412C512C3201D701419137
:101BD0004423C1F00FEFE01AF00A5C9145130AC0EC
:101BE0001FEF411A510A610A710AF0CF6FEF7FEFC0
:101BF000CB0165C00FEF801A900AA00AB00A2B5ED5
:101C00003F4FD6CF7D83D62E40E150E060E070E0BC
:101C100071DE698385E1889D8001899D100D112405
:101C20000C5D1B4F40E150E060E070E0C80162DEF7
:101C3000A9812A2FAA0F330B440B550B2419350900
:101C4000460957092B013C01B1E04B1A51086108C4
:101C50007108420E531E641E751EE1E14E165104BA
:101C6000610471041CF62B013C01D801ED2DFD81AE
:101C700081E0481A5108610871081414150416040B
:101C800017041CF48D918193F3CF121613061406DA
:101C900015064CF4D7018D917D01819321503109B6
:101CA00041095109F2CF85E1889DF001899DF00D30
:101CB0001124EC5EFB4F61897289838994890F90AE
:101CC0000F900F900F900F90DF91CF911F910F9178
:101CD000FF90EF90DF90BF90AF909F908F907F909C
:101CE0006F905F904F900895CF92DF92EF92FF92A6
:101CF000FB01C12CD12C7601C216D306E406F506F1
:101D000064F46191DC016D93CD01662341F0BFEF76
:101D1000CB1ADB0AEB0AFB0AEFCF8FEF01C081E0A1
:101D2000FF90EF90DF90CF900895A0E1B0E0EAE956
:101D3000FEE0B4C38B0149015A0120E130E040E0EC
:101D400050E0BC01CE010196CFDF8F3FF1F0C12CF6
:101D5000D12C76010DC020E130E040E050E0B80128
:101D6000CE010196C1DF8FEFC81AD80AE80AF80A37
:101D70008091100490911104A0911204B091130469
:101D8000C816D906EA06FB0614F08FEF0AC0B801A0
:101D9000CE010196E8DE681579058A059B05D9F222
:101DA000862F6096ECE096C3A0E1B0E0E9EDFEE09E
:101DB0007DC3FC01CB018A01259135914591559157
:101DC000BE016F5F7F4FB1DF682F880F770B880BE5
:101DD000990B6F3F2FEF72078207920731F098013E
:101DE000AE014F5F5F4FA7DA01C08FEF6096E4E06E
:101DF00079C328D061E082E04BDD1F921F928BE314
:101E000091E09F938F931F9284E18F9382E08F9351
:101E10001F928AEE90E19F938F930E941C03EADB4E
:101E200061E070E080E090E065DC8DB79EB70A96D7
:101E30000FB6F8949EBF0FBE8DBF82E037DD82E003
:101E40004CDDFBCFE0910401F0910501158287E69E
:101E5000848388E1818386E082830895E091040190
:101E6000F0910501908195FFFDCF86830895A6E04E
:101E7000B0E0ECE3FFE018C3009741F09E012F5F54
:101E80003F4F7901F9012AE030E003C080E3E6DF4B
:101E900016C08F010E191F091816190634F4B9015E
:101EA000C8D2805D8193CB01F4CF0E0D1F1D0E159E
:101EB0001F0529F0F80182918F01D0DFF8CF269617
:101EC000E6E00EC3CF93DF93EC018991882311F0F4
:101ED000C5DFFBCFDF91CF910895DB018C91E0E767
:101EE000F4E0808311968C911197818312968C91E6
:101EF00082830895E0E7F4E0DB018D91BD018193D9
:101F0000B4E0E637FB07C1F70895FC01AC014E5F72
:101F10005F4F8FEF91E32191822728E030E087FF28
:101F200003C0880F892701C0880F21503109B9F7F4
:101F3000E417F50781F70895A2E0B0E0E1EAFFE0D9
:101F4000B7C283EF89838DE28A8320E030E042E0EC
:101F5000BE016F5F7F4F84E4D2D14DE65FE063E066
:101F600084E4F3D1809170049091710498278927BB
:101F700098272296E2E0B8C2A2E0B0E0E1ECFFE0F0
:101F800097C280E3898382EA8A8320E030E042E0DE
:101F9000BE016F5F7F4F84E4B2D164E170E080E006
:101FA00090E0A8DB2296E2E09FC2E6DFC5DF21E0F9
:101FB00030E0019611F420E030E0C9010895A2E07C
:101FC000B0E0E4EEFFE074C2892B11F486E601C0B4
:101FD0008DE690E399838A8320E030E042E0BE0101
:101FE0006F5F7F4F84E48BD162E070E080E090E02F
:101FF00081DB81E090E02296E2E076C2A2E0B0E0F0
:10200000E3E0F0E153C284E289831A8220E030E009
:1020100042E0BE016F5F7F4F84E471D168E270E0FF
:1020200080E090E067DB4AE75FE066E084E48DD122
:1020300064E070E080E090E05DDBE0E7F4E006E77C
:1020400014E086E794E0D80121912D938E179F0725
:10205000D9F786E491E036DFF80181918F0190E0B5
:1020600006DF8AE491E02EDFF4E00C371F07A1F7CA
:1020700087E891E027DF86E794E047DF082F89E7CC
:1020800094E043DF182F8CE491E01CDF802F90E078
:10209000EEDE88E591E016DF8091780490E0E7DEDF
:1020A00083E691E00FDF812F90E0E1DE88E591E0AB
:1020B00009DF80917B0490E0DADE87E891E002DFBF
:1020C00080917804081719F082E791E006C08091AA
:1020D0007B04181731F08AE891E0F4DE80E090E0AC
:1020E0003FC06091790470917A04162F072F609198
:1020F00076047091770476276727762780E090E052
:1021000001D320E03FEF4FE757E494D220E030E0E6
:102110004FE253E485D320E030E044E352E425D29B
:102120006093A6017093A7018093A8019093A901E1
:10213000B80180E090E0E6D220E03FEF4FE757E4BF
:1021400079D220E030E048EC52E46AD36093A201F7
:102150007093A3018093A4019093A50181E090E086
:102160002296E4E0BFC10F931F93CF93DF938C01BE
:10217000EB0144DF009771F440E050E060EC7FE752
:10218000F8014083518362837383488359836A8350
:102190007B831BC08091A6019091A701A091A8010B
:1021A000B091A901F80180839183A283B3838091C8
:1021B000A2019091A301A091A401B091A5018883EF
:1021C0009983AA83BB8381E090E0DF91CF911F9137
:1021D0000F910895A8E0B0E0EFEEF0E165C14DD0B9
:1021E00068E873E180E090E085DADFDE892B29F092
:1021F000E12CF12C00E010E010C068EE73E080E00C
:1022000090E078DAFACF68EE73E080E090E072DA7E
:102210000E3111053CF50F5F1F4FBE016F5F7F4F01
:10222000CE010596A0DF892B71F382E03FDB8D8123
:102230009E81AF81B88580936C0490936D04A093C8
:102240006E04B0936F0489819A81AB81BC818093C5
:10225000680490936904A0936A04B0936B0482E0CD
:102260003CDBD1CF81E0EF2809F080E0E82EF12CB3
:10227000C701A5DE00E010E0CECF88E48093B8006F
:102280001092B9001092CF01789484E08093BC0042
:1022900008958091CF018111FCCF8BEA91E00895E0
:1022A000AAEAB1E09196EC91919781E08E0F919618
:1022B0008C938091BB00F0E0E655FE4F808308953B
:1022C0002091CB0130E08091CA0190E0019728175E
:1022D000390714F485EC01C085E88093BC000895AB
:1022E0008091AA0186951092CF01E091CC01F091E6
:1022F000CD01309719F06BEA71E009950895EF92DE
:10230000FF920F931F93CF93DF93D82F8B01C42F8E
:102310007901BFDF81E08093CF01EAEAF1E0DD0FD0
:10232000D0838C0F80A311A2F3A2E2A22C2F30E065
:1023300040E050E0B8018BEA91E0E4D285EA809376
:10234000BC00CDB7DEB7E6E0CBC00F931F93CF93B1
:10235000DF93C82FD62F8A019CDF81E08093CF01C5
:10236000EAEAF1E0CC0FC160C083DF5FD0A311A225
:1023700013A302A385EA8093BC00DF91CF911F9144
:102380000F9108951F920F920FB60F9211242F9361
:102390003F934F935F936F937F938F939F93AF93ED
:1023A000BF93EF93FF938091B900887F8093CE0114
:1023B0008091B900887F883279F038F4803161F0FB
:1023C000883151F0883001F507C08035C9F0883573
:1023D000D1F08034C9F415C0E091CB018091CA01DD
:1023E000E81790F481E08E0F8093CB01F0E0E65582
:1023F000FE4F80818093BB0085E88093BC0008C0BD
:102400004FDF5EDF05C04CDF84E98093BC0068DFEE
:10241000FF91EF91BF91AF919F918F917F916F91BC
:102420005F914F913F912F910F900FBE0F901F9092
:10243000189597FB072E16F4009406D077FD08D068
:102440005ED007FC05D03EF4909581959F4F08958E
:10245000709561957F4F0895052E97FB16F40094B3
:102460000FD057FD05D05FD007FC02D046F408C05E
:1024700050954095309521953F4F4F4F5F4F0895B0
:1024800090958095709561957F4F8F4F9F4F0895E0
:102490002F923F924F925F926F927F928F929F9274
:1024A000AF92BF92CF92DF92EF92FF920F931F9362
:1024B000CF93DF93CDB7DEB7CA1BDB0B0FB6F89413
:1024C000DEBF0FBECDBF09942A88398848885F8453
:1024D0006E847D848C849B84AA84B984C884DF80C4
:1024E000EE80FD800C811B81AA81B981CE0FD11DA8
:1024F0000FB6F894DEBF0FBECDBFED010895AA1B45
:10250000BB1B51E107C0AA1FBB1FA617B70710F0DE
:10251000A61BB70B881F991F5A95A9F78095909510
:10252000BC01CD010895A1E21A2EAA1BBB1BFD011F
:102530000DC0AA1FBB1FEE1FFF1FA217B307E407A2
:10254000F50720F0A21BB30BE40BF50B661F771FFA
:10255000881F991F1A9469F76095709580959095DA
:102560009B01AC01BD01CF0108955058BB27AA279C
:102570000ED01CC10DD130F012D120F031F49F3FAC
:1025800011F41EF402C10EF4E095E7FBF8C0E92F48
:102590001ED180F3BA17620773078407950718F0F6
:1025A00071F49EF536C10EF4E0950B2EBA2FA02DD6
:1025B0000B01B90190010C01CA01A0011124FF27F0
:1025C000591B99F0593F50F4503E68F11A16F040EB
:1025D000A22F232F342F4427585FF3CF46953795EA
:1025E0002795A795F0405395C9F77EF41F16BA0BAF
:1025F000620B730B840BBAF09150A1F0FF0FBB1F5D
:10260000661F771F881FC2F70EC0BA0F621F731FA5
:10261000841F48F4879577956795B795F7959E3F02
:1026200008F0B3CF9395880F08F09927EE0F979590
:10263000879508950CD0BAC0B2D040F0A9D030F040
:1026400021F45F3F19F09BC05111E4C09EC0BFD080
:1026500098F39923C9F35523B1F3951B550BBB2769
:10266000AA2762177307840738F09F5F5F4F220F16
:10267000331F441FAA1FA9F333D00E2E3AF0E0E80F
:1026800030D091505040E695001CCAF729D0FE2F5B
:1026900027D0660F771F881FBB1F261737074807ED
:1026A000AB07B0E809F0BB0B802DBF01FF279358A3
:1026B0005F4F2AF09E3F510568F061C0ABC05F3F9D
:1026C000ECF3983EDCF3869577956795B795F7958B
:1026D0009F5FC9F7880F911D9695879597F9089583
:1026E000E1E0660F771F881FBB1F6217730784071F
:1026F000BA0720F0621B730B840BBA0BEE1F88F72E
:10270000E0950895E89409C097FB3EF49095809574
:10271000709561957F4F8F4F9F4F9923A9F0F92FA7
:1027200096E9BB279395F695879577956795B79525
:10273000F111F8CFFAF4BB0F11F460FF1BC06F5F0B
:102740007F4F8F4F9F4F16C0882311F096E911C01D
:10275000772321F09EE8872F762F05C0662371F03E
:1027600096E8862F70E060E02AF09A95660F771F52
:10277000881FDAF7880F9695879597F9089597F946
:102780009F6780E870E060E008959FEF80EC089517
:1027900000240A9416161706180609060895002440
:1027A0000A9412161306140605060895092E0394BA
:1027B000000C11F4882352F0BB0F40F4BF2B11F42E
:1027C00060FF04C06F5F7F4F8F4F9F4F089557FD8D
:1027D0009058440F551F59F05F3F71F04795880F8F
:1027E00097FB991F61F09F3F79F087950895121626
:1027F00013061406551FF2CF4695F1DF08C01616D2
:1028000017061806991FF1CF869571056105089482
:102810000895E894BB2766277727CB0197F9089599
:102820000BD0C4CFB5DF28F0BADF18F0952309F03C
:10283000A6CFABCF1124EECFCADFA0F3959FD1F383
:10284000950F50E0551F629FF001729FBB27F00D5E
:10285000B11D639FAA27F00DB11DAA1F649F6627B3
:10286000B00DA11D661F829F2227B00DA11D621F02
:10287000739FB00DA11D621F839FA00D611D221FBC
:10288000749F3327A00D611D231F849F600D211DA0
:10289000822F762F6A2F11249F5750408AF0E1F043
:1028A00088234AF0EE0FFF1FBB1F661F771F881F8C
:1028B00091505040A9F79E3F510570F060CFAACFCC
:1028C0005F3FECF3983EDCF3869577956795B79577
:1028D000F795E7959F5FC1F7FE2B880F911D9695A1
:1028E000879597F90895FB01DC014150504048F06D
:1028F00005900D920020C9F701C01D924150504033
:10290000E0F70895FB01DC0102C001900D924150F7
:102910005040D8F70895DC0101C06D9341505040FC
:10292000E0F70895AEE0B0E0E7E9F4E1BFCD8C0157
:10293000FA0186E08C831A83098377FF02C060E086
:1029400070E8CB0101979E838D83A901BF01CE0161
:10295000019611D04D815E8157FD0AC02F813885C7
:10296000421753070CF49A01F801E20FF31F10828B
:102970002E96E4E0B7CDABE0B0E0E0ECF4E188CD3A
:102980006C017B018A01FC0117821682838181FF21
:10299000BFC1CE0101963C01F6019381F70193FD81
:1029A000859193FF81917F01882309F4ADC1853220
:1029B00039F493FD859193FF81917F01853221F454
:1029C000B60190E0C0D1E8CF912C212C312CFFE151
:1029D000F315D8F08B3279F038F4803279F0833205
:1029E000A1F4232D20611DC08D3261F0803369F484
:1029F000232D216016C0832D8260382EE32DE460E4
:102A00003E2E2AC0F32DF8601DC037FC2DC020EDEE
:102A1000280F2A3040F08E32B9F436FC75C1232DD0
:102A20002064322E19C036FE06C08AE0989E200D22
:102A30001124922E11C0EAE02E9E200D1124222E88
:102A4000F32DF0623F2E08C08C3621F4832D806870
:102A5000382E02C0883641F4F70193FD859193FF2B
:102A600081917F018111B3CF982F9F7D9554933031
:102A700028F40C5F1F4F9FE399830DC0833631F01C
:102A8000833771F0833509F055C020C0F80180818B
:102A900089830E5F1F4F88248394912C530112C0A9
:102AA0002801F2E04F0E511CF801A080B18036FEE3
:102AB00003C0692D70E002C06FEF7FEFC50138D110
:102AC0004C018201F32DFF773F2E15C0280122E033
:102AD000420E511CF801A080B18036FE03C0692D62
:102AE00070E002C06FEF7FEFC50117D14C01F32DED
:102AF000F0683F2E820133FC19C0822D90E08816C9
:102B00009906A0F4B60180E290E01DD12A94F5CF99
:102B1000F50137FC859137FE81915F01B60190E0A8
:102B200012D121102A9421E0821A91088114910473
:102B300079F7E1C0843611F0893639F5F80137FEAE
:102B400007C060817181828193810C5F1F4F08C033
:102B500060817181072E000C880B990B0E5F1F4F4F
:102B6000F32DFF763F2E97FF09C0909580957095C5
:102B700061957F4F8F4F9F4FF0683F2E2AE030E0E6
:102B8000A3011DD1882E861844C0853731F4232D2A
:102B90002F7EB22E2AE030E025C0932D997FB92EEA
:102BA0008F36C1F018F4883579F0AEC0803719F04F
:102BB000883721F0A9C0E92FE061BE2EB4FE0DC018
:102BC000FB2DF460BF2E09C034FE0AC0292F2660F9
:102BD000B22E06C028E030E005C020E130E002C09F
:102BE00020E132E0F801B7FE07C060817181828187
:102BF00093810C5F1F4F06C06081718180E090E07F
:102C00000E5F1F4FA301DBD0882E8618FB2DFF77A8
:102C10003F2E36FE0DC0232D2E7FA22E891458F490
:102C200034FE0BC032FC09C0832D8E7EA82E05C059
:102C3000B82CA32C03C0B82C01C0B92CA4FE0FC023
:102C4000FE01E80DF11D8081803321F49A2D997EDB
:102C5000A92E09C0A2FE06C0B394B39404C08A2D65
:102C6000867809F0B394A3FC10C0A0FE06C0B2148D
:102C700080F4280C922C9B180DC0B21458F4B601A5
:102C800080E290E060D0B394F8CFB21418F42B181F
:102C900002C0982C212CA4FE0FC0B60180E390E066
:102CA00052D0A2FE16C0A1FC03C088E790E002C08B
:102CB00088E590E0B6010CC08A2D867851F0A1FE1F
:102CC00002C08BE201C080E2A7FC8DE2B60190E079
:102CD0003AD0891430F4B60180E390E034D09A946D
:102CE000F8CF8A94F301E80DF11D8081B60190E0E0
:102CF0002AD08110F6CF222009F44ECEB60180E210
:102D000090E021D02A94F7CFF6018681978102C006
:102D10008FEF9FEF2B96E2E1D7CBFC01059061503E
:102D200070400110D8F7809590958E0F9F1F0895E1
:102D3000FC016150704001900110D8F7809590958A
:102D40008E0F9F1F08950F931F93CF93DF93FB0167
:102D5000238121FD03C08FEF9FEF2CC022FF16C0FF
:102D600046815781248135814217530744F4A0815D
:102D7000B1819D012F5F3F4F318320838C9326814A
:102D800037812F5F3F4F3783268314C08B01EC01BF
:102D9000FB010084F185E02D0995892BE1F6D8012E
:102DA00016968D919C911797019617969C938E93EA
:102DB0001697CE01DF91CF911F910F910895FA01DF
:102DC000AA27283051F1203181F1E8946F936E7F6A
:102DD0006E5F7F4F8F4F9F4FAF4FB1E03ED0B4E05B
:102DE0003CD0670F781F891F9A1FA11D680F791F9C
:102DF0008A1F911DA11D6A0F711D811D911DA11DAD
:102E000020D009F468943F912AE0269F11243019BC
:102E1000305D3193DEF6CF010895462F4770405D57
:102E20004193B3E00FD0C9F7F6CF462F4F70405D06
:102E30004A3318F0495D31FD4052419302D0A9F761
:102E4000EACFB4E0A6959795879577956795BA955B
:102E5000C9F700976105710508959B01AC010A2E21
:102E600006945795479537952795BA95C9F7620FF8
:0A2E7000731F841F951FA01D089515
:102E7A00C0000400C000201B5B306D1B5B324A1B84
:102E8A005B3B48000A467265654D454D3A2564200C
:102E9A00286279746573290A0A006E756C6C700071
:102EAA006D61696E002F6465762F00636F6E7472B0
:102EBA006F6C747968005241573A2000435243209C
:102ECA0063616C6320543D002072656369626964C2
:102EDA006F3D00207C204352432063616C6320488D
:102EEA003D0046414C4C4F204352432054454D50DF
:102EFA00455241545552410D0A0046414C4C4F200F
:0E2F0A004352432048554D454441440D0A00B2
:00000001FF
